:03000000020E826B
:0C0E8200787FE4F6D8FD7581A9020EC946
:1007F800F505D39727B6F615F7B777E6F0C7F2727F
:100808000002011A0123012C0135013E0147015163
:10081800015A0164016E01770181018B0194019EE7
:1008280001A801B201BC01C601CF01D901E301ED64
:1008380001F60200020A0213021D0226022F0238E4
:100848000242024B0254025C0265026E0276027F8B
:100858000287028F0297029F02A702AF02B602BE6A
:1008680002C502CC02D302DA02E102E702EE02F488
:1008780002FB03010307030D03120318031D0323DF
:100888000328032D03320337033C03410345034A7E
:10089800034E03520356035A035E03620366036A58
:1008A800036D037103740378037B037E0381038460
:1008B8000387038A038D038F039203950397039994
:1008C800039C039E03A003A303A503A703A903ABEB
:1008D80003AD03AF03B103B203B403B603B803B95E
:1008E80003BB03BC03BE03BF03C103C203C403C5E8
:0408F80003C603C769
:10000E00043600000000015200015300018C000173
:04001E008D00C1810F
:0C0A9900E4FF120CBE783EEEF608EFF60B
:100AA50075240875250AE4FD7978FCE9C313FBED87
:100AB500C3132BF52885258285248375F002120E34
:100AC50076C37401939FE4939E4004A9288002ADE8
:100AD500280CBC05D685258285248375F002ED1288
:100AE5000E76740193B50707E493B5060280398540
:100AF500258285248375F002E9120E76740193B57B
:100B05000708E493B50603E9801FEDD39950400D1E
:100B150085258285248375F002ED120E7674019386
:100B2500B5070DE493B50608ED752600F527801F7A
:100B350085258285248375F002ED120E76D3740126
:100B4500939FE4939E40C31DAF057526008F27AE86
:030B550026AF27A1
:010B5800227A
:04007D007FC87E00BA
:10008100EF4E60150000007D0B7CBEDCFEDDFC75D3
:09009100C134EF1F70EA1E80E784
:01009A002243
:10165900759850438E01438E0475D7E075D6FE43C5
:071669008E10C298C2992205
:10169E00538E7F5389F0438901E4F58A758CDCC241
:0616AE008DC28CC2A922CE
:0E17AC0053890F438950E4F58BF58DC2AB22B3
:10177E0053D1FDE4F5D575D44C43D10843AF2022A7
:0D17BA00E4F5C7F5C5F5C675C380F5C4227A
:04163E00AF03AE0246
:1016420075C78375C5018FC48EC375C65A75C6A585
:0616520000AFC21217BA3E
:01165800226F
:0A15FF00AF03AE0274A22CF8E6FD63
:1016090075C78375C5028FC48EC38DC275C65A75D9
:06161900C6A5000217BA8D
:1016CA0075C78375C5038FC48EC375C65A75C6A5FB
:0416DA00000217BA39
:1016DE00E4FDFCC2AFFFFE1216CA7892E6FD1216AA
:0316EE0009D2AF6F
:0116F10022D6
:101670007D007C10C2AF7F007E101216CA7890E603
:06168000FD121609D2AFB5
:011686002241
:10161F007F007E10C2AF1216427890EFF6D2AFC3A2
:0E162F0094014006E6D394FA40047890767851
:01163D00228A
:1000260078A2E6784CF6FF78A3E67832F678A4E66E
:10003600789BF678A5E6782FF678A6E6789AF6EF16
:100046006008784CE6D394074004784C7601783201
:10005600E6D394014002E4F6789BE6D39406400288
:10006600E4F6782FE6D3946440027632789AE6D3A3
:0700760094DC4002765022E9
:1009D300784CE678A2F67832E678A3F6789BE67848
:1009E300A4F6782FE678A5F6789AE678A6F67892B4
:1009F300E6F96401701C7A02FBC2AFFF7E02121695
:100A0300CAE4FC1215FF0BBB00010A0CBC05F4D2AF
:100A1300AF22E96402701C7A04FBC2AFFF7E0412AA
:100A230016CAE4FC1215FF0BBB00010A0CBC05F44B
:100A3300D2AF22E96403701C7A06FBC2AFFF7E06C5
:100A43001216CAE4FC1215FF0BBB00010A0CBC050D
:100A5300F4D2AF22E96404701C7A08FBC2AFFF7EB4
:100A6300081216CAE4FC1215FF0BBB00010A0CBCEA
:100A730005F4D2AF22E96405701B7A0AFBC2AFFF0B
:100A83007E0A1216CAE4FC1215FF0BBB00010A0C06
:050A9300BC05F4D2AF28
:010A9800223B
:0E178E00C2AFE4FFFE1216427892A607D2AF59
:01179C00222A
:100B59007892E6FF6005D39405400478927601788F
:100B690092E6FC6401701DC2AF7A02FBFD12163ECB
:100B790074A22DF8A6070BBB00010A0DBD05EED224
:100B8900AF020C15EC6402701CC2AF7A04FBFD12B3
:100B9900163E74A22DF8A6070BBB00010A0DBD0570
:100BA900EED2AF80677892E6FC6403701CC2AF7A1C
:100BB90006FBFD12163E74A22DF8A6070BBB000119
:100BC9000A0DBD05EED2AF8043EC6404701CC2AFC0
:100BD9007A08FBFD12163E74A22DF8A6070BBB007E
:100BE900010A0DBD05EED2AF80227892E6B4051C4C
:100BF900C2AF7A0A7B00E4FD12163E74A22DF8A654
:0F0C0900070BBB00010A0DBD05EED2AF0200269E
:0C17C700759D3FE4F5BDF5BE75BCA02289
:1012F600E4FDFCEF44A8F5BC00000000E5BC30E4CA
:10130600FB53BCEFAFBD7C00AD07ED7E007802C39A
:1013160033CE33CED8F9FDAC06AFBEEF4205AE04F0
:02132600AF0511
:0113280022A2
:020CBE00AB0782
:100CC000E4FAAF031212F6EA25E0246AF8A6060851
:100CD000A6077F057E001200810ABA07E5E4FFAE91
:100CE00007EED39406503CEE25E0246BF9EF25E0A7
:100CF000246AF8E6FC08E6FDC397EC19974021EE5C
:100D000025E0246AF8E6FA08E6FBEF25E0246AF815
:100D1000A60208A603EE25E0246AF8A60408A605A4
:100D20000E80BE0FBF07B8E47876F608F6786AF64C
:100D300008F6796DE7786F26FF19E71836FEEF7829
:100D40007126FFEE1836FEEF787326FFEE1836FE9A
:100D5000EF787526FFEE1836FE7C007D05120E2119
:010D60002270
:0A17D300C2998F993099FDC2992246
:06158C008B2A8A2B892C3A
:10159200E4FEAB2AAA2BA92C8E82758300120DF4CD
:1015A200FF60061217D30E80E97FFF1217D31217BE
:0415B200D30217D376
:0917DD00007F017E86DEFEDFFCC8
:0117E60022E0
:10128100D2B6D2C1D2B7E4FF1212A5D2B67F4412B0
:1012910012A5D2B67FCE1212A57840E6FF1212A592
:0412A100D2B67F93AF
:0212A500AD0793
:1012A7001217DDC2B6E4FFC2C1ED1392B7D2C1ED8A
:0A12B700C313FD0FBF08F00217DD9E
:02102300AA071A
:10102500EA6401702679CB7BCA783DE654F0FFF679
:10103500ED9007F89354F0FEC4540F4FF529F618B8
:10104500E654F0FFF6ED93540F8028BA021279C7E3
:101055007BC77899E65408FFF6ED9007F89380135F
:10106500BA031379C67BC67898E65408FFF6ED9067
:1010750007F8934FFCF6D2B6D2C1D2B7E4FF1212ED
:10108500A5D2B67F441212A5D2B6BA010CAF011291
:1010950012A5AF291212A5D2B600AF031212A5AF41
:0610A5000412129ED2B6F7
:0110AB002222
:04113200789BE6FFC1
:10113600EF70097843E65430F6F68052BF010B781B
:1011460043E65430F64440F68044BF020B7843E64B
:101156005430F644C0F68036BF030B7843E654306D
:10116600F644C8F68028BF040B7843E65430F644AC
:10117600CCF6801ABF050B7843E65430F644CEF61B
:10118600800CBF06097843E65430F644CFF6D2B653
:10119600D2C1D2B7E4FF1212A5D2B67F441212A56D
:0F11A600D2B67FCF1212A5784312129CD2B62276
:100F0E007897A60708A60708A607783CA60708A69E
:100F1E00077840A6077843A607D2B6D2C1D2B7E467
:100F2E00FF1212A5D2B67F441212A5D2B67FC312FB
:100F3E0012A57897E6FF1212A5D2B67FC61212A599
:100F4E0008E6FF1212A5D2B67FC71212A508E6FF59
:100F5E001212A5D2B67FCA1212A5783CE6FF121263
:100F6E00A5D2B67FCB1212A508E6FF1212A5D2B6F5
:100F7E007FCE1212A57840E6FF1212A5D2B67FCF11
:0B0F8E001212A5784312129CD2B6226A
:0A0F9900D21E782FE6752400F5251E
:100FA300301E67AE24AF257C037DE8120E217E0040
:100FB3007F64CFCDCFCECCCE120E218F26AE24AF01
:100FC300257C007D64120E217E007F0ACFCDCFCE1B
:100FD300CCCE120E218F27AE24AF257C007D0A12C2
:100FE3000E218D28E52670047D108002AD267F0139
:100FF300121023E5267008E52770047D108002ADEA
:10100300277F02121023AD2880107D107F0112105C
:0F101300237D107F021210237D107F0312102304
:0110220022AB
:0612C100C201C2CCC21EF6
:1012C7007897E6301E054440F6800354BFF6D2B641
:1012D700D2C1D2B7E4FF1212A5D2B67F441212A52B
:0F12E700D2B67FC31212A5789712129CD2B622EC
:1015DB00C213C2A8C28EC2A9D2A2D2A1D297C21ED6
:1015EB007840E6301E054408F6800354F7F61212D5
:0415FB0081D2B622C1
:1016F2007840E6301E054404F6800354FBF61212CD
:0417020081D2B622B8
:101706007840E6301E054402F6800354FDF61212B8
:0417160081D2B622A4
:10171A007840E6301E054401F6800354FEF61212A4
:04172A0081D2B62290
:10132900783DE6301E054440F6800354BFF6D2B638
:10133900D2C1D2B7E4FF1212A5D2B67F441212A5C8
:0F134900D2B67FCB1212A5783D12129CD2B622DB
:10135800783DE6301E054420F6800354DFF6D2B609
:10136800D2C1D2B7E4FF1212A5D2B67F441212A599
:0F137800D2B67FCB1212A5783D12129CD2B622AC
:10138700783DE6301E054410F6800354EFF6D2B6DA
:10139700D2C1D2B7E4FF1212A5D2B67F441212A56A
:0F13A700D2B67FCB1212A5783D12129CD2B6227D
:1013B6007897E6301E054410F6800354EFF6D2B651
:1013C600D2C1D2B7E4FF1212A5D2B67F441212A53B
:0F13D600D2B67FC31212A5789712129CD2B622FC
:1013E5007897E6301E054420F6800354DFF6D2B622
:1013F500D2C1D2B7E4FF1212A5D2B67F441212A50C
:0F140500D2B67FC31212A5789712129CD2B622CC
:101414007897E6301E054480F68003547FF6D2B6F2
:10142400D2C1D2B7E4FF1212A5D2B67F441212A5DC
:0F143400D2B67FC31212A5789712129CD2B6229D
:101443007898E6301E054408F6800354F7F6D2B6C2
:10145300D2C1D2B7E4FF1212A5D2B67F441212A5AD
:0F146300D2B67FC61212A5789812129CD2B6226A
:101472007897E63017054404F6800354FBF6D2B69B
:10148200D2C1D2B7E4FF1212A5D2B67F441212A57E
:0F149200D2B67FC31212A5789712129CD2B6223F
:1014A1007897E63018054408F6800354F7F6D2B66B
:1014B100D2C1D2B7E4FF1212A5D2B67F441212A54F
:0F14C100D2B67FC31212A5789712129CD2B62210
:10172E007840E63019054480F68003547FF6121295
:04173E0081D2B6227C
:101742007840E6301A054440F6800354BFF6121280
:0417520081D2B62268
:101756007840E6301B054420F6800354DFF612126B
:0417660081D2B62254
:1014D000783CE6301C054408F6800354F7F6D2B693
:1014E000D2C1D2B7E4FF1212A5D2B67F441212A520
:0F14F000D2B67FCA1212A5783C12129CD2B62235
:1014FF007899E6301D054408F6800354F7F6D2B606
:10150F00D2C1D2B7E4FF1212A5D2B67F441212A5F0
:0F151F00D2B67FC71212A5789912129CD2B622AB
:10176A007840E6301E054410F6800354EFF6121254
:04177A0081D2B62240
:10152E007843E6301E054410F6800354EFF6D2B62B
:10153E00D2C1D2B7E4FF1212A5D2B67F441212A5C1
:0F154E00D2B67FCF1212A5784312129CD2B622CA
:10155D007843E6301E054420F6800354DFF6D2B6FC
:10156D00D2C1D2B7E4FF1212A5D2B67F441212A592
:0F157D00D2B67FCF1212A5784312129CD2B6229B
:1008FC00EF14B4070040030209D290091475F003F9
:10090C00A4C58325F0C58373020929020941020994
:10091C005902096C02097F0209970209B4D21E120E
:10092C0016F2C21E121706C21E12171AD21E12136C
:10093C0029C21E806CD21E1216F2D21E121706C2CB
:10094C001E12171AD21E121329D21E8054D21E1236
:10095C0016F2D21E121706D21E12171AD21E80249D
:10096C00D21E1216F2C21E121706D21E12171AD25D
:10097C001E8046C21E1216F2D21E121706D21E126C
:10098C00171AC21E121329D21E8033C21E1216F25F
:10099C00D21E121706C21E12171AC21E121329D209
:1009AC001E121358C21E801BC21E1216F2C21E1239
:1009BC001706D21E12171AC21E121329C21E1213A8
:0709CC0058D21E121387220E
:10123100120B59E4FF120F0ED21E7892120F9DD29B
:101241001E1214147FE87E03120081C21E121414B0
:10125100120F99D21E121443121132784CE6FF126A
:1012610008FC7832E6B40104D21E8002C21E1213B9
:10127100B6D21E12176AD21E12152ED21E02155D8B
:0F179D0043BA8090FF32EEF0A3EFF053BA7F22F1
:0A17E70043BA8075F58853BA7F22DB
:101687007F0A7E0012179D43BA80E4F5F553BA7FAF
:071697007834F608760A2200
:040D6100789BE6FF96
:100D6500EFB407004003020DF3900D75F8282873C2
:100D7500020D8A020D90020DA0020DB0020DC002F7
:100D85000DD0020DE0121687C20A221217E7783439
:100D950076070876D07FD07E07804E1217E7783425
:100DA50076090876607F607E09803E1217E7783401
:100DB500760A0876F07FF07E0A802E1217E77834DF
:100DC500760C0876807F807E0C801E1217E77834BB
:100DD500760E0876107F107E0E800E1217E7783497
:0F0DE500760F0876A07FA07E0F12179DD20A22EC
:030023000211B512
:1011B500C0E0C0D075D00830986DC2987831E6FF90
:1011C5002478F8A699E599F4704E788EE6FE249376
:1011D500F8A60FEEB4010F7894E6FFC31896FEBE8D
:1011E5000102801F8013788EE6B402177895E6FF1A
:1011F500C31896FEBE0102800A7893A60F788E76F4
:10120500018003788E06788EE6D39402400AC2AC3C
:10121500760078317600D214783106E6D3941440FE
:0C122500067600788E7600D0D0D0E03243
:1016B4007869E62420794EF718E634E419F7784F70
:0616C40076FD0876E82225
:030003000215B62D
:1015B600C0E0C0D075D008D2A2D2A1D297784DE6AD
:1015C600FE08E6F58AEEF58CC216C28DD2A9D28C3B
:0515D600D0D0D0E0328E
:03000B000210AC34
:1010AC00C0E0C0F0C083C082C0D075D010201661E3
:1010BC00784CE614B4070050439010D375F003A499
:1010CC00C58325F0C583730210E80210EC0210F200
:1010DC000210F60210FC021102021106C297801CCB
:1010EC00C297C2A18016C2978006C297C2A2800C7A
:1010FC00C2A1C2A28006C2A18002C2A2C28C784F39
:10110C00E6FE08E6F58AEEF58CC28DD28CD21680FE
:10111C000AD2A2D2A1D297C28CC2A9D0D0D082D0EE
:06112C0083D0F0D0E03298
:03009B00020C183C
:100C1800C0E0C0D075D018E580540F789CF6300736
:100C28001B78A806E6D3941340127600080679A923
:100C3800E7789096400678A97600D20F783006E6D5
:100C4800D3940A40047600D215300A0F789606E647
:100C5800D3940240067600D204B20520010F78A78B
:100C680006E6D3940240067600D201D2CC200811C1
:100C7800788FE6D394094006B2C276008003788F55
:100C880006300320789106E6D3942840047600D2F3
:100C980009783AE6D3940940067600B202801278C1
:100CA8003A06800D783B06E6D3943C40047600D2A1
:060CB8000ED0D0D0E032A6
:10009E00C286C285D2A0D208759460E4F59375929B
:1000AE00C0F59175968EF595F5B2F5B1F5B4F5B33B
:1000BE00F5CAF5C9D2A2D2A1D29743BA8075F1087A
:1000CE0090FFF2740BF090FFF07410F0A3E4F09038
:1000DE00FF30F0A3F0A3F0A3740AF0A3E4F075F7D9
:1000EE003053BA7F1216591217C712169E1217AC3A
:1000FE0012177ED288D2AF12178E120B5912161FFC
:10010E00000000E4FF120F0ED287789CE6640360B5
:10011E00030201AFC201C2CCC2A0C2C3C2C4C2A6F6
:10012E00D21E7890120F9D789CE6B4030575C134EB
:10013E0080F57F327E00120081789CE6640170119A
:10014E00C201C2CC789006E6D394FA401A76FA80B1
:10015E0016789CE66405701FC201C2CC789016E634
:10016E00C3940150027601D21E7890120F9D7F64C7
:10017E007E0012008180BB789CE6640370B4C201DD
:10018E00C2CC121670789CE6B4030575C13480F5A6
:10019E00D2C3D2A6D2C4D2A4D2A5E4FF120F0ED2DD
:1001AE00A0C2C2E4789FF67F327E00120081789C56
:1001BE00E67038C201C2CCD2C27FFF120F0EC2A0AF
:1001CE00D208C2A412007DC2A512007DC2A61200E2
:1001DE007DC2C412007DC2C312007DC2C27FE87E02
:1001EE0003120081E4FF120F0E8013789F06E6D3F0
:1001FE00941440B3E4F6D2A2D2A1D29780A9000003
:10020E00C2C3C2A6C2C4C2A4C2A5C213121231C2B4
:10021E00C2C209120A9918A60608A607C20EC20083
:10022E00E4783BF6C20BD2857FC8FE120081C285F0
:10023E00D21E12176AC21E12152E75C1347832E6FE
:10024E006401706F208740301303020305D213C27E
:10025E000BC207782FE6D394005003020305120D4C
:10026E0061D21E1215EB782FE675F040A4FFAEF0AA
:10027E007868EEF608EFF6D39400EE9419406818FD
:10028E007619087600806030131DC213C20BE47815
:10029E00A9F618F6D207C21E1215EBC2A8C28EC25C
:1002AE00A9D2A2D2A1D297300F4DC20F121687C279
:1002BE000A8044200B41D20B120D61782FE6D394A5
:1002CE00004032D21E1215EB782FE675F040A4FFD7
:1002DE00AEF07868EEF608EFF6D39400EE9419407F
:1002EE00061876190876001216B4E4F58BF58DC251
:1002FE0089D2A88002D210300418C204300509D267
:10030E001E12176AC21E8007C21E12176AD21E1252
:10031E00152E20150302041AC215120A9918A606E4
:10032E0008A6077F05120CBE784A120AA018A60668
:10033E0008A60730061B200318783EE6FE08E6FFE7
:10034E00D39400EE94004009D21E8E248F25120FF6
:10035E00A3789AE6FFC3783FE69F18E69400400420
:10036E00D2868002C286784AE6FE08E6FFD3942D36
:10037E00EE94004009200006D285D2008014C3EF0F
:10038E009428EE9400500B300008C285C200D208AB
:10039E00C2C2D3EF9464EE94004012C20830C20879
:1003AE00C201C2CCC21E8002D21E1213E5D3784BFC
:1003BE00E6947618E6940040531215DDD21E121301
:1003CE00E5D2867F647E0012008130C204C201C273
:1003DE00CC789CE670EDC201C2CCFF120F0ED2A0FB
:1003EE00C20AC20BD2C3D2A6D2C4D2A4D2C2D2A542
:1003FE00C2A8C28EC2A9D2A2D2A1D2971216877853
:10040E009CE6600302010F75C13480F3300E41C2C9
:10041E000E300616C206C21E1212C7D21E12144388
:10042E00D21E782FE67524008021D206D3783FE6BF
:10043E00940018E694004018D21E1212C7C21E1263
:10044E001443D21E783EE6F52408E6F525120FA3D6
:10045E0030090DC201C2CCC209C203D20E1209D399
:10046E00789CE6704F78517696789CE670127851AB
:10047E00E6D39400400A167F0A7E0012008180E9BE
:10048E007851E6702FC201C2CCFF120F0ED2A0C25D
:10049E000AC20BD2C3D2A6D2C4D2A4D2C2D2A5C291
:1004AE00851215DD121687789CE6600302010F7522
:1004BE00C13480F3789CE6B40316200813C201C23F
:1004CE00CCD208C2C2789CE6B4030575C13480F55F
:1004DE00789CE6FC64097035C201C2CCD2037891D7
:1004EE00F6789B06E6D39406400276061211327811
:1004FE0032E6FF6006B40106208703120D61789C78
:10050E00E66409600302063B75C13480F1EC640DAC
:10051E007035C201C2CCD2037891F6789BE6700397
:10052E00F68003789B161211327832E6FF6006B41D
:10053E000106208703120D61789CE6640D600302AC
:10054E00063B75C13480F1789CE66401706B121223
:10055E00C1D21E121443D203E47891F6782F74059B
:10056E0026F6E6D3946440027664120F99782FE64D
:10057E0075F040A4FFAEF07868EEF608EFF6D3946F
:10058E0000EE941940061876190876001216B4304B
:10059E0010097832E67004C210800A20870F783274
:1005AE00E6B40109E4F58BF58DC289D2A8789CE6F4
:1005BE006401707975C13480F4789CE66405706DC1
:1005CE001212C1D21E121443D203E47891F6782F80
:1005DE00E6C39405400474FB26F6120F99782FE6B5
:1005EE00FCC39405501CE4F6C2A8C28EC2A9D2A2C6
:1005FE00D2A1D297C21E1214437832E67024D210C2
:10060E008020EC75F040A4FFAEF07868EEF608EFAF
:10061E00F6D39400EE941940061876190876001257
:10062E0016B4789CE6B4050575C13480F5789CE661
:10063E00640460030206EE78517696789CE6B40464
:10064E00127851E6D39400400A167F0A7E001200FB
:10065E008180E87851E6703DC201C2CC7832E670F6
:10066E00067601D21E8006E47832F6C21E1213B64A
:10067E00789CE6B4040575C13480F51209D3C20A1C
:10068E00D2C3D2A6D2C4D2A4D2C2D2A51215DD1222
:10069E00168702020CC201C2CCC20AC20BD203E4FC
:1006AE007891F60806E6D3940540027601121231CF
:1006BE001216DE789CE6B4040575C13480F57832E6
:1006CE00E6B401061215DB121687782FE6701112AA
:1006DE0015DB1216877832E67004D2108002C21033
:1006EE00789CE66402600302024878517696789C04
:1006FE00E6B402127851E6D39400400A167F0A7EC1
:10070E000012008180E87851E660030207CDC20135
:10071E00C2CCD21E1212C7C21E121443D21E789A17
:10072E00120F9DD203789CE66402701375C13430AB
:10073E000204D21E8002C21E789A120F9D80E67F9E
:10074E001E7E00120081300204D21E8002C21E786C
:10075E009A120F9D789CE664017011C201C2CC788A
:10076E009A06E6D394C8401A76C88016789CE6643A
:10077E0005701FC201C2CC789A16E6C3943250029D
:10078E007632D21E789A120F9D7F967E00120081CD
:10079E0080AD789CE6640270A6C201C2CC789CE65D
:1007AE00B4020575C13480F51209D3C203C209C261
:1007BE001E1212C7D21E121443120F99020248C201
:1007CE0001C2CCD203E47891F6784C06E6D39407B6
:1007DE0040027601784CE6FF1208FC789CE6640233
:0A07EE00600302024875C13480F177
:100E8E0002009EE493A3F8E493A34003F68001F2DC
:100E9E0008DFF48029E493A3F85407240CC8C33365
:100EAE00C4540F4420C8834004F456800146F6DF34
:100EBE00E4800B010204081020408090000EE47EB6
:100ECE00019360BCA3FF543F30E509541FFEE49329
:100EDE00A360010ECF54C025E060A840B8E493A3F0
:100EEE00FAE493A3F8E493A3C8C582C8CAC583CA1B
:100EFE00F0A3C8C582C8CAC583CADFE9DEE780BED3
:0100220000DD
:100DF400BB010CE58229F582E5833AF583E02250B4
:100E040006E92582F8E622BBFE06E92582F8E222FD
:0D0E1400E58229F582E5833AF583E4932217
:100E2100BC000BBE0029EF8DF084FFADF022E4CCB5
:100E3100F875F008EF2FFFEE33FEEC33FCEE9DEC7E
:100E4100984005FCEE9DFE0FD5F0E9E4CEFD22EDC4
:100E5100F8F5F0EE8420D21CFEADF075F008EF2F0E
:100E6100FFED33FD4007985006D5F0F222C398FDFF
:050E71000FD5F0EA229C
:0C0E7600A42582F582E5F03583F5832287
:00000001FF
