:03000000020F5D8F
:0C0F5D00787FE4F6D8FD7581B4020FA483
:10096900F505D39727B6F615F7B777E6F0C7F2720C
:100979000002011A0123012C0135013E01470151F1
:10098900015A0164016E01770181018B0194019E75
:1009990001A801B201BC01C601CF01D901E301EDF2
:1009A90001F60200020A0213021D0226022F023872
:1009B9000242024B0254025C0265026E0276027F19
:1009C9000287028F0297029F02A702AF02B602BEF8
:1009D90002C502CC02D302DA02E102E702EE02F416
:1009E90002FB03010307030D03120318031D03236D
:1009F9000328032D03320337033C03410345034A0C
:100A0900034E03520356035A035E03620366036AE5
:100A1900036D037103740378037B037E03810384ED
:100A29000387038A038D038F039203950397039921
:100A3900039C039E03A003A303A503A703A903AB78
:100A490003AD03AF03B103B203B403B603B803B9EB
:100A590003BB03BC03BE03BF03C103C203C403C575
:040A690003C603C7F6
:10169100C10BC10F042700000000042B0000000053
:1016A100022F0000044100000000015D00015E0006
:0816B100019700019800C181BE
:0C0C0A00E4FF120D897849EEF608EFF6C1
:100C160075310975327BE4FD7978FCE9C313FBED88
:100C2600C3132BF53585328285318375F002120E9A
:100C3600BEC37401939FE4939E4004A9358002AD20
:100C4600350CBC05D685328285318375F002ED12EE
:100C56000EBE740193B50707E493B5060280398585
:100C6600328285318375F002E9120EBE740193B5A6
:100C76000708E493B50603E9801FEDD39950400DAC
:100C860085328285318375F002ED120EBE740193B2
:100C9600B5070DE493B50608ED753300F534801FEE
:100CA60085328285318375F002ED120EBED3740152
:100CB600939FE4939E40C31DAF057533008F34AEFA
:030CC60033AF3415
:010CC9002208
:04007D007FC87E00BA
:10008100EF4E60150000007D0B7CBEDCFEDDFC75D3
:09009100C134EF1F70EA1E80E784
:01009A002243
:10175C00759850438E01438E0475D7E075D6FE43C1
:07176C008E10C298C2992201
:1017A100538E7F5389F0438901E4F58A758CDCC23D
:0617B1008DC28CC2A922CA
:0E189B0053890F438950E4F58BF58DC2AB22C3
:10186D0053D1FDE4F5D575D44C43D10843AF2022B7
:0D18A900E4F5C7F5C5F5C675C380F5C4228A
:04174200AF03AE0241
:1017460075C78375C5018FC48EC375C65A75C6A580
:0617560000AFC20218A959
:0A170300AF03AE0274AD2CF8E6FD52
:10170D0075C78375C5028FC48EC38DC275C65A75D4
:06171D00C6A5000218A998
:10000E0075C78375C5038FC48EC375C65A75C6A5CD
:04001E00000218A91B
:1017CD00E4FDFCC2AFFFFE12000E789DE6FD121780
:0317DD000DD2AF7B
:0117E00022E6
:101773007D007C10C2AF7F007E1012000E789BE6C6
:06178300FD12170DD2AFAC
:01178900223D
:101723007F007E10C2AF121746789BEFF6D2AFC38D
:0E17330094014006E6D394FA4004789B760FAA
:011741002285
:1000260078ADE67857F6FF78AEE6783DF678AFE637
:1000360078A6F678B0E6783AF678B1E678A5F6EFDF
:1000460060087857E6D39407400478577601783DE0
:10005600E6D394014002E4F678A6E6D3940640027D
:10006600E4F6783AE6D394644002763278A5E6D38D
:0700760094DC4002765022E9
:100B44007857E678ADF6783DE678AEF678A6E6789E
:100B5400AFF6783AE678B0F678A5E678B1F6789DFF
:100B6400E6F96401701C7A02FBC2AFFF7E02120038
:100B74000EE4FC1217030BBB00010A0CBC05F4D2F3
:100B8400AF22E96402701C7A04FBC2AFFF7E041238
:100B9400000EE4FC1217030BBB00010A0CBC05F4A5
:100BA400D2AF22E96403701C7A06FBC2AFFF7E0653
:100BB40012000EE4FC1217030BBB00010A0CBC0567
:100BC400F4D2AF22E96404701C7A08FBC2AFFF7E42
:100BD4000812000EE4FC1217030BBB00010A0CBC44
:100BE40005F4D2AF22E96405701B7A0AFBC2AFFF99
:100BF4007E0A12000EE4FC1217030BBB00010A0C60
:050C0400BC05F4D2AFB5
:010C090022C8
:0E187D00C2AFE4FFFE121746789DA607D2AF59
:01188B00223A
:100CCA00789DE6FF6005D394054004789D76017807
:100CDA009DE6FC6401701DC2AF7A02FBFD12174249
:100CEA0074AD2DF8A6070BBB00010A0DBD05EED2A7
:100CFA00AF020D86EC6402701CC2AF7A04FBFD12CF
:100D0A00174274AD2DF8A6070BBB00010A0DBD05ED
:100D1A00EED2AF8067789DE6FC6403701CC2AF7A9E
:100D2A0006FBFD12174274AD2DF8A6070BBB000196
:100D3A000A0DBD05EED2AF8043EC6404701CC2AF4D
:100D4A007A08FBFD12174274AD2DF8A6070BBB00FB
:100D5A00010A0DBD05EED2AF8022789DE6B4051CCE
:100D6A00C2AF7A0A7B00E4FD12174274AD2DF8A6D1
:0F0D7A00070BBB00010A0DBD05EED2AF0200262C
:0C18B600759D3FE4F5BDF5BE75BCA02299
:1013D100E4FDFCEF44A8F5BC00000000E5BC30E4EE
:1013E100FB53BCEFAFBD7C00AD077E00ED7802C3BF
:1013F10033CE33CED8F9FDAC06AFBEEF4205AE0415
:02140100AF0535
:0114030022C6
:020D8900AB07B6
:100D8B00E4FAAF031213D1EA25E02475F8A606089E
:100D9B00A6077F057E001200810ABA07E5E4FFAEC5
:100DAB0007EED39406503CEE25E02476F9EF25E0D0
:100DBB002475F8E6FC08E6FDC397EC19974021EE85
:100DCB0025E02475F8E6FA08E6FBEF25E02475F834
:100DDB00A60208A603EE25E02475F8A60408A605CE
:100DEB000E80BE0FBF07B8E47881F608F67875F66B
:100DFB0008F67978E7787A26FF19E71836FEEF7848
:100E0B007C26FFEE1836FEEF787E26FFEE1836FEB8
:100E1B00EF788026FFEE1836FE7C007D05020E581B
:0A18C200C2998F993099FDC2992256
:061667008B378A38893937
:10166D00E4FEAB37AA38A9398E82758300120E2B92
:10167D00FF60061218C20E80E97FFF1218C2121801
:04168D00C20218C2BB
:0918CC00007F017E86DEFEDFFCD8
:0118D50022F0
:10135C00D2B6D2C1D2B7E4FF121380D2B67F4412F8
:10136C001380D2B67FCE121380784BE6FF12138017
:04137C00D2B67F93D3
:02138000AD07B7
:101382001218CCC2B6E4FFC2C1ED1392B7D2C1EDBE
:0A139200C313FD0FBF08F00218CCD2
:0210FE00AA073F
:10110000EA6401702679CB7BCA7848E654F0FFF692
:10111000ED9009699354F0FEC4540F4FF536F6185C
:10112000E654F0FFF6ED93540F8028BA021279C707
:101130007BC778A4E65408FFF6ED90096993801305
:10114000BA031379C67BC678A3E65408FFF6ED9080
:101150000969934FFCF6D2B6D2C1D2B7E4FF12139D
:1011600080D2B67F44121380D2B6BA010CAF0112FE
:101170001380AF36121380D2B600AF03121380AFC4
:0611800004121379D2B63F
:011186002246
:04120D0078A6E6FFDA
:10121100EF7009784EE65430F6F68052BF010B7834
:101221004EE65430F64440F68044BF020B784EE659
:101231005430F644C0F68036BF030B784EE6543086
:10124100F644C8F68028BF040B784EE65430F644C5
:10125100CCF6801ABF050B784EE65430F644CEF634
:10126100800CBF0609784EE65430F644CFF6D2B66C
:10127100D2C1D2B7E4FF121380D2B67F44121380D9
:0F128100D2B67FCF121380784E121377D2B622D7
:100FE90078A2A60708A60708A6077847A60708A6AD
:100FF90007784BA607784EA607D2B6D2C1D2B7E476
:10100900FF121380D2B67F44121380D2B67FC31267
:10101900138078A2E6FF121380D2B67FC61213801E
:1010290008E6FF121380D2B67FC712138008E6FFC5
:10103900121380D2B67FCA1213807847E6FF1213C3
:1010490080D2B67FCB12138008E6FF121380D2B686
:101059007FCE121380784BE6FF121380D2B67FCF72
:0B106900121380784E121377D2B622CB
:0A107400D220783AE6753100F5321B
:10107E00302067AE31AF327C037DE8120E587E0011
:10108E007F64CFCDCFCECCCE120E588F33AE31AFD4
:10109E00327C007D64120E587E007F0ACFCDCFCEFB
:1010AE00CCCE120E588F34AE31AF327C007D0A1288
:1010BE000E588D35E53370047D108002AD337F01FF
:1010CE001210FEE5337008E53470047D108002AD19
:1010DE00347F021210FEAD3580107D107F0112108C
:0F10EE00FE7D107F021210FE7D107F031210FE98
:0110FD0022D0
:06139C00C201C2CCC22018
:1013A20078A2E63020054440F6800354BFF6D2B658
:1013B200D2C1D2B7E4FF121380D2B67F4412138097
:0F13C200D2B67FC312138078A2121377D2B6224D
:1016DF00C215C2A8C28EC2A9D2A2D2A1D297C220CD
:1016EF00784BE63020054408F6800354F7F61213C2
:0416FF005CD2B622E1
:1017E100784BE63020054404F6800354FBF61213CF
:0417F1005CD2B622EE
:1017F500784BE63020054402F6800354FDF61213BB
:041805005CD2B622D9
:10180900784BE63020054401F6800354FEF61213A6
:041819005CD2B622C5
:101404007848E63020054440F6800354BFF6D2B64F
:10141400D2C1D2B7E4FF121380D2B67F4412138034
:0F142400D2B67FCB1213807848121377D2B6223C
:101433007848E63020054420F6800354DFF6D2B620
:10144300D2C1D2B7E4FF121380D2B67F4412138005
:0F145300D2B67FCB1213807848121377D2B6220D
:101462007848E63020054410F6800354EFF6D2B6F1
:10147200D2C1D2B7E4FF121380D2B67F44121380D6
:0F148200D2B67FCB1213807848121377D2B622DE
:1014910078A2E63020054410F6800354EFF6D2B668
:1014A100D2C1D2B7E4FF121380D2B67F44121380A7
:0F14B100D2B67FC312138078A2121377D2B6225D
:1014C00078A2E63020054420F6800354DFF6D2B639
:1014D000D2C1D2B7E4FF121380D2B67F4412138078
:0F14E000D2B67FC312138078A2121377D2B6222E
:1014EF0078A2E63020054480F68003547FF6D2B60A
:1014FF00D2C1D2B7E4FF121380D2B67F4412138049
:0F150F00D2B67FC312138078A2121377D2B622FE
:10151E0078A3E63020054408F6800354F7F6D2B6D9
:10152E00D2C1D2B7E4FF121380D2B67F4412138019
:0F153E00D2B67FC612138078A3121377D2B622CB
:10154D0078A2E63019054404F6800354FBF6D2B6B2
:10155D00D2C1D2B7E4FF121380D2B67F44121380EA
:0F156D00D2B67FC312138078A2121377D2B622A0
:10157C0078A2E6301A054408F6800354F7F6D2B682
:10158C00D2C1D2B7E4FF121380D2B67F44121380BB
:0F159C00D2B67FC312138078A2121377D2B62271
:10181D00784BE6301B054480F68003547FF6121397
:04182D005CD2B622B1
:10183100784BE6301C054440F6800354BFF6121382
:041841005CD2B6229D
:10184500784BE6301D054420F6800354DFF612136D
:041855005CD2B62289
:1015AB007847E6301E054408F6800354F7F6D2B6AA
:1015BB00D2C1D2B7E4FF121380D2B67F441213808C
:0F15CB00D2B67FCA1213807847121377D2B62296
:1015DA0078A4E6301F054408F6800354F7F6D2B61D
:1015EA00D2C1D2B7E4FF121380D2B67F441213805D
:0F15FA00D2B67FC712138078A4121377D2B6220D
:10185900784BE63020054410F6800354EFF6121356
:041869005CD2B62275
:10160900784EE63020054410F6800354EFF6D2B642
:10161900D2C1D2B7E4FF121380D2B67F441213802D
:0F162900D2B67FCF121380784E121377D2B6222B
:10163800784EE63020054420F6800354DFF6D2B613
:10164800D2C1D2B7E4FF121380D2B67F44121380FE
:0F165800D2B67FCF121380784E121377D2B622FC
:100A6D00EF14B407004003020B43900A8575F003A1
:100A7D00A4C58325F0C58373020A9A020AB2020A3D
:100A8D00CA020ADD020AF0020B08020B25D220125F
:100A9D0017E1C2201217F5C220121809D220121424
:100AAD0004C220806CD2201217E1D2201217F5C299
:100ABD0020121809D220121404D2208054D22012F0
:100ACD0017E1D2201217F5D220121809D220802456
:100ADD00D2201217E1C2201217F5D220121809D216
:100AED00208046C2201217E1D2201217F5D2201213
:100AFD001809C220121404D2208033C2201217E12B
:100B0D00D2201217F5C220121809C220121404D2D5
:100B1D0020121433C220801BC2201217E1C22012F2
:100B2D0017F5D220121809C220121404C220121473
:070B3D0033D22012146222E2
:10130C00120CCAE4FF120FE9D220789D121078D289
:10131C00201214EF7FE87E03120081C2201214EF1A
:10132C00121074D22012151E12120D7857E6FF12ED
:10133C000A6D783DE6B40104D2208002C22012145A
:10134C0091D220121859D220121609D22002163826
:0F188C0043BA8090FF32EEF0A3EFF053BA7F2201
:0A18D60043BA8075F58853BA7F22EB
:10178A007F0A7E0012188C43BA80E4F5F553BA7FBB
:07179A00783FF608760A22F1
:040ECA0078A6E6FF21
:100ECE00EFB407004003020F5C900EDEF828287383
:100EDE00020EF3020EF9020F09020F19020F290278
:100EEE000F39020F4912178AC20A221218D6783FFA
:100EFE0076070876D07FD07E07804E1218D6783FC0
:100F0E0076090876607F607E09803E1218D6783F9B
:100F1E00760A0876F07FF07E0A802E1218D6783F79
:100F2E00760C0876807F807E0C801E1218D6783F55
:100F3E00760E0876107F107E0E800E1218D6783F31
:0F0F4E00760F0876A07FA07E0F12188CD20A2291
:0300230002129036
:10129000C0E0C0D075D00830986DC298783CE6FFA9
:1012A0002483F8A699E599F4704E7899E6FE249E79
:1012B000F8A60FEEB4010F789FE6FFC31896FEBEA6
:1012C0000102801F80137899E6B4021778A0E6FF28
:1012D000C31896FEBE0102800A789EA60F78997602
:1012E0000180037899067899E6D39402400AC2AC4B
:1012F0007600783C7600D216783C06E6D39414400B
:0C13000006760078997600D0D0D0E0325C
:1017B7007874E624207959F718E634E419F7785A4B
:0617C70076FD0876E82221
:030003000216BA28
:1016BA00C0E0C0D075D008D2A2D2A1D2977858E69D
:1016CA00FE08E6F58AEEF58CC218C28DD2A9D28C34
:0516DA00D0D0D0E03289
:03000B0002118758
:10118700C0E0C0F0C083C082C0D075D01020186105
:101197007857E614B4070050439011AE75F003A4D6
:1011A700C58325F0C583730211C30211C70211CD90
:1011B7000211D10211D70211DD0211E1C297801C81
:1011C700C297C2A18016C2978006C297C2A2800C9E
:1011D700C2A1C2A28006C2A18002C2A2C28C785A52
:1011E700E6FE08E6F58AEEF58CC28DD28CD2188021
:1011F7000AD2A2D2A1D297C28CC2A9D0D0D082D013
:0612070083D0F0D0E032BC
:03009B000208490F
:10084900C0E0C0F0C083C082C0D075D018E5805424
:100859000F78A7F630071B78B306E6D39413401236
:100869007600080679B4E7789B96400678B4760056
:10087900D211783B06E6D3940A40047600D21730A9
:100889000A0F78A106E6D3940240067600D204B294
:100899000520010F78B206E6D3940240067600D20D
:1008A90001D2CC200811789AE6D394094006B2C245
:1008B90076008003789A06300320789C06E6D39464
:1008C9002840047600D2097845E6D3940940067693
:1008D90000B2028012784506800D784606E6D39468
:1008E9003C40047600D210300B35E52A2401F52A64
:1008F900E43529F529E43528F528E43527F527E4F1
:100909007FC8FEFDFCAB2AAA29A928A827C3120E75
:10091900AD700CD20FC20BF52AF529F528F5273051
:100929000F33E52E2401F52EE4352DF52DE4352C74
:10093900F52CE4352BF52BE47FC8FEFDFCAB2EAA84
:100949002DA92CA82BC3120EAD700AC20FF52EF5D6
:100959002DF52CF52BD0D0D082D083D0F0D0E03239
:10009E00C286C285D2A0D208759460E4F59375929B
:1000AE00C0F59175968EF595F5B2F5B1F5B4F5B33B
:1000BE00F5CAF5C9D2A2D2A1D29743BA8075F1087A
:1000CE0090FFF2740BF090FFF07410F0A3E4F09038
:1000DE00FF30F0A3F0A3F0A3740AF0A3E4F075F7D9
:1000EE003053BA7F12175C1218B61217A112189B52
:1000FE0012186DD288D2AF12187D120CCA121723A5
:10010E00000000E4FF120FE9D28778A7E6640360CF
:10011E00030201AFC201C2CCC2A0C2C3C2C4C2A6F6
:10012E00D220789B12107878A7E6B4030575C134F7
:10013E0080F57F327E0012008178A7E6640170118F
:10014E00C201C2CC789B06E6D394FA401A76FA80A6
:10015E001678A7E66405701FC201C2CC789B16E61E
:10016E00C3940150027601D220789B1210787F64DE
:10017E007E0012008180BB78A7E6640370B4C201D2
:10018E00C2CC12177378A7E6B4030575C13480F597
:10019E00D2C3D2A6D2C4D2A4D2A5E4FF120FE9D202
:1001AE00A0C2C2E478AAF67F327E0012008178A740
:1001BE00E67038C201C2CCD2C27FFF120FE9C2A0D4
:1001CE00D208C2A412007DC2A512007DC2A61200E2
:1001DE007DC2C412007DC2C312007DC2C27FE87E02
:1001EE0003120081E4FF120FE9801378AA06E6D30A
:1001FE00941440B3E4F6D2A2D2A1D29780A9000003
:10020E00C2C3C2A6C2C4C2A4C2A5C21512130CC2D6
:10021E00C2C209120C0A18A60608A607C210C2000E
:10022E00E47846F6C20CD2857FC8FE120081C285E4
:10023E00D220121859C22012160975C134783DE623
:10024E006401704A20870DE530452F7007D20BF5FB
:10025E002F753001308719C20BC20FE4F52AF5292C
:10026E00F528F527F52EF52DF52CF52BF52FF53078
:10027E00300F12785876FD0876E8D2207531007569
:10028E00326412107E200F061217B7121074783DCA
:10029E00E66401706F208740301503020356D215B5
:1002AE00C20CC207783AE6D39400500302035612EA
:1002BE000ECAD2201216EF783AE675F040A4FFAEC1
:1002CE00F07873EEF608EFF6D39400EE94194068CA
:1002DE00187619087600806030151DC215C20CE420
:1002EE0078B4F618F6D207C2201216EFC2A8C28E44
:1002FE00C2A9D2A2D2A1D29730114DC21112178A21
:10030E00C20A8044200C41D20C120ECA783AE6D3AF
:10031E0094004032D2201216EF783AE675F040A4DF
:10032E00FFAEF07873EEF608EFF6D39400EE941964
:10033E0040061876190876001217B7E4F58BF58D7E
:10034E00C289D2A88002D212300418C20430050924
:10035E00D220121859C2208007C220121859D2205A
:10036E0012160920170302046BC217120C0A18A6E4
:10037E000608A6077F05120D897855120C1118A6CE
:10038E000608A60730061B2003187849E6FE08E685
:10039E00FFD39400EE94004009D2208E318F32129A
:1003AE00107E78A5E6FFC3784AE69F18E6940040D3
:1003BE0004D2868002C2867855E6FE08E6FFD39404
:1003CE002DEE94004009200006D285D2008014C381
:1003DE00EF9428EE9400500B300008C285C200D274
:1003EE0008C2C2D3EF9464EE94004012C20830C229
:1003FE0008C201C2CCC2208002D2201214C0D3780F
:10040E0056E6947618E6940040531216E1D2201266
:10041E0014C0D2867F647E0012008130C204C201F5
:10042E00C2CC78A7E670EDC201C2CCFF120FE9D2A2
:10043E00A0C20AC20CD2C3D2A6D2C4D2A4D2C2D2F5
:10044E00A5C2A8C28EC2A9D2A2D2A1D29712178AD1
:10045E0078A7E6600302010F75C13480F3301041B6
:10046E00C210300616C206C2201213A2D2201215D6
:10047E001ED220783AE67531008021D206D3784A12
:10048E00E6940018E694004018D2201213A2C2205F
:10049E0012151ED2207849E6F53108E6F532121013
:1004AE007E30090DC201C2CCC209C203D210120B9A
:1004BE004478A7E6704F785C769678A7E670127847
:1004CE005CE6D39400400A167F0A7E0012008180FB
:1004DE00E9785CE6702FC201C2CCFF120FE9D2A000
:1004EE00C20AC20CD2C3D2A6D2C4D2A4D2C2D2A540
:1004FE00C2851216E112178A78A7E6600302010F71
:10050E0075C13480F378A7E6B40316200813C20130
:10051E00C2CCD208C2C278A7E6B4030575C1348036
:10052E00F578A7E6FC64097035C201C2CCD2037817
:10053E009CF678A606E6D394064002760612120DB5
:10054E00783DE6FF6006B40106208703120ECA78D6
:10055E00A7E66409600302068C75C13480F1EC6471
:10056E000D7035C201C2CCD203789CF678A6E67027
:10057E0003F6800378A61612120D783DE6FF60068C
:10058E00B40106208703120ECA78A7E6640D600335
:10059E0002068C75C13480F178A7E66401706B1287
:1005AE00139CD22012151ED203E4789CF6783A746E
:1005BE000526F6E6D3946440027664121074783AF7
:1005CE00E675F040A4FFAEF07873EEF608EFF6D3C2
:1005DE009400EE941940061876190876001217B793
:1005EE00301209783DE67004C212800A20870F7817
:1005FE003DE6B40109E4F58BF58DC289D2A878A742
:10060E00E66401707975C13480F478A7E6640570EC
:10061E006D12139CD22012151ED203E4789CF6782C
:10062E003AE6C39405400474FB26F6121074783A29
:10063E00E6FCC39405501CE4F6C2A8C28EC2A9D231
:10064E00A2D2A1D297C22012151E783DE67024D2F6
:10065E00128020EC75F040A4FFAEF07873EEF60831
:10066E00EFF6D39400EE941940061876190876002A
:10067E001217B778A7E6B4050575C13480F578A7CB
:10068E00E66404600302073F785C769678A7E6B4CA
:10069E000412785CE6D39400400A167F0A7E00129C
:1006AE00008180E8785CE6703DC201C2CC783DE600
:1006BE0070067601D2208006E4783DF6C220121430
:1006CE009178A7E6B4040575C13480F5120B44C2C7
:1006DE000AD2C3D2A6D2C4D2A4D2C2D2A51216E1D5
:1006EE0012178A02020CC201C2CCC20AC20CD20379
:1006FE00E4789CF60806E6D39405400276011213C0
:10070E000C1217CD78A7E6B4040575C13480F578C0
:10071E003DE6B401061216DF12178A783AE670111A
:10072E001216DF12178A783DE67004D2128002C2CA
:10073E001278A7E664026003020248785C76967827
:10074E00A7E6B40212785CE6D39400400A167F0A3C
:10075E007E0012008180E8785CE6600302081EC20B
:10076E0001C2CCD2201213A2C22012151ED22078A2
:10077E00A5121078D20378A7E66402701375C134FF
:10078E00300204D2208002C22078A512107880E6B2
:10079E007F1E7E00120081300204D2208002C22011
:1007AE0078A512107878A7E664017011C201C2CC48
:1007BE0078A506E6D394C8401A76C8801678A7E6C0
:1007CE006405701FC201C2CC78A516E6C3943250E0
:1007DE00027632D22078A51210787F967E00120013
:1007EE008180AD78A7E6640270A6C201C2CC78A75C
:1007FE00E6B4020575C13480F5120B44C203C2097A
:10080E00C2201213A2D22012151E12107402024818
:10081E00C201C2CCD203E4789CF6785706E6D39494
:10082E0007400276017857E6FF120A6D78A7E66454
:0B083E0002600302024875C13480F123
:100F690002009EE493A3F8E493A34003F68001F200
:100F790008DFF48029E493A3F85407240CC8C33389
:100F8900C4540F4420C8834004F456800146F6DF58
:100F9900E4800B0102040810204080901691E47E41
:100FA900019360BCA3FF543F30E509541FFEE4934D
:100FB900A360010ECF54C025E060A840B8E493A314
:100FC900FAE493A3F8E493A3C8C582C8CAC583CA3F
:100FD900F0A3C8C582C8CAC583CADFE9DEE780BEF7
:0116B9000030
:100E2B00BB010CE58229F582E5833AF583E022507C
:100E3B0006E92582F8E622BBFE06E92582F8E222C6
:0D0E4B00E58229F582E5833AF583E49322E0
:100E5800BC000BBE0029EF8DF084FFADF022E4CC7E
:100E6800F875F008EF2FFFEE33FEEC33FCEE9DEC47
:100E7800984005FCEE9DFE0FD5F0E9E4CEFD22ED8D
:100E8800F8F5F0EE8420D21CFEADF075F008EF2FD7
:100E9800FFED33FD4007985006D5F0F222C398FDC8
:050EA8000FD5F0EA2265
:100EAD00EB9FF5F0EA9E42F0E99D42F0E89C45F09B
:010EBD002212
:0C0EBE00A42582F582E5F03583F583223F
:00000001FF
