:030000000223F9DF
:0C23F900787FE4F6D8FD75817402244062
:101C9100F505D39727B6F615F7B777E6F0C7F272D1
:101CA1000002011A0123012C0135013E01470151B6
:101CB100015A0164016E01770181018B0194019E3A
:101CC10001A801B201BC01C601CF01D901E301EDB7
:101CD10001F60200020A0213021D0226022F023837
:101CE1000242024B0254025C0265026E0276027FDE
:101CF1000287028F0297029F02A702AF02B602BEBD
:101D010002C502CC02D302DA02E102E702EE02F4DA
:101D110002FB03010307030D03120318031D032331
:101D21000328032D03320337033C03410345034AD0
:101D3100034E03520356035A035E03620366036AAA
:101D4100036D037103740378037B037E03810384B2
:101D51000387038A038D038F0392039503970399E6
:101D6100039C039E03A003A303A503A703A903AB3D
:101D710003AD03AF03B103B203B403B603B803B9B0
:101D810003BB03BC03BE03BF03C103C203C403C53A
:041D910003C603C7BB
:102862004202550000420297000A42025300000150
:102872005A00042B00000000014800014900015BDE
:0628820000015C00C182B0
:0C1B7A00E4FF12219E7834EEF608EFF62E
:041B8600AD07AC06F5
:101B8A00900299741CF0A374A3F0E4FA7F78FEEF34
:101B9A00C313FBEAC3132B90029DF0900299E0F85D
:101BAA00A3E0F5828883C083C08290029DE0D08240
:101BBA00D08375F002121A2BE493F8740193F5821C
:101BCA008883C39DE5839C90029DE04003FF8001CA
:101BDA00FA0EEEB405B9900299E0F8A3E0F582880E
:101BEA008375F002EA121A2BE493F8740193F582D2
:101BFA008883B50507E583B504028050900299E011
:101C0A00F8A3E0F582888375F002EF121A2BE493A9
:101C1A00F8740193F5828883B50507E583B5040254
:101C2A008054EAD39F50570A900299E0F8A3E0F54E
:101C3A0082888375F002EA121A2BE493F8740193EE
:101C4A00F5828883B50509E583B50404EAFF802691
:101C5A00900299E0F8A3E0F582888375F002EA120F
:101C6A001A2BE493F8740193F5828883D39DE58354
:101C7A009C40AF1AAF0290029BE4F0A3EFF09002EF
:061C8A009BE0FEA3E0FF59
:011C90002231
:042BAA007FC87E0062
:102BAE00EF4E60150000007D0B7CBEDCFEDDFC757B
:092BBE00C134EF1F70EA1E80E72C
:012BC70022EB
:102BE300759850438E01438E0475D7E075D6FE4326
:092BF3008E10C298C299D2AC22E6
:102C2A00538E7F5389F0438901E4F58A758CDCC29F
:062C3A008DC28CC2A9222C
:0E2D230053890F438950E4F58BF58DC2AB2226
:102CF50043D102E4F5D575D42843D10843AF20224A
:0D2D3100E4F5C7F5C5F5C675C380F5C422ED
:042BC800AF03AE02A7
:102BCC0075C78375C5018FC4EEF5C375C65A75C636
:072BDC00A500AFC2022D317C
:0A2B4700AF03AE02746D2CF8E6FD3A
:102B510075C78375C5028FC4EEF5C3AF058FC27506
:092B6100C65A75C6A500022D310B
:10000E0075C78375C5038FC4EEF5C375C65A75C61D
:05001E00A500022D31D8
:102C5500E4FDFCC2AFFFFE12000E7861E6FD122B0B
:032C650051D2AF9A
:012C68002249
:102BFC007D007C10C2AF7F007E1012000E785EE666
:062C0C00FD122B51D2AFB6
:012C1200229F
:102B8B007F007E10C2AF122BCC785EEFF6D2AFC3B4
:0E2B9B00940A4006E6D394FA4004785E7678F9
:012BA9002209
:10268A00786DE67842F6FF786EE67827F6786FE698
:10269A007868F67870E67825F67871E67866F6EF67
:1026AA0060087842E6D39407400478427601782796
:1026BA00E6D394014002E4F67868E6D39406400231
:1026CA00E4F67825E6D39464400276327866E6D357
:0726DA0094DC40027650225F
:101F62007842E6786DF67827E6786EF67868E67855
:101F72006FF67825E67870F67866E67871F678611D
:101F8200E6F96401701D7A02FBC2AFFF7E02120005
:101F92000EE4FC122B470BBB00010A0CECB405F358
:101FA200D2AF22E96402701D7A04FBC2AFFF7E0445
:101FB20012000EE4FC122B470BBB00010A0CECB41E
:101FC20005F3D2AF22E96403701D7A06FBC2AFFFAC
:101FD2007E0612000EE4FC122B470BBB00010A0C1A
:101FE200ECB405F3D2AF22E96404701D7A08FBC297
:101FF200AFFF7E0812000EE4FC122B470BBB000160
:102002000A0CECB405F3D2AF22E96405701C7A0A1B
:10201200FBC2AFFF7E0A12000EE4FC122B470BBB81
:0A20220000010A0CECB405F3D2AF84
:01202C002291
:0E2D0500C2AFE4FFFE122BCC7861A607D2AF5E
:012D1300229D
:10202D007861E6FF6005D394054004786176017808
:10203D0061E6FC6401701EC2AF7A02FBFD122BC873
:10204D00746D2DF8A6070BBB00010A0DEDB405ED5F
:10205D00D2AF0220EDEC6402701DC2AF7A04FBFD1D
:10206D00122BC8746D2DF8A6070BBB00010A0DEDE0
:10207D00B405EDD2AF80697861E6FC6403701DC2D2
:10208D00AF7A06FBFD122BC8746D2DF8A6070BBB9E
:10209D0000010A0DEDB405EDD2AF8044EC6404707F
:1020AD001DC2AF7A08FBFD122BC8746D2DF8A60763
:1020BD000BBB00010A0DEDB405EDD2AF80227861A6
:1020CD00E66405701BC2AF7A0AFBFD122BC8746D56
:1020DD002DF8A6070BBB00010A0DEDB405EDD2AF2F
:0320ED0002268A3E
:0C2D3E00759D27E4F5BDF5BE75BCA02214
:102AF500E4FDFCEF44A8F5BC00000000E5BC30E4B3
:102B0500FB53BCEFAFBD7C00AD077E00ED7802C383
:0C2B150033CE33CED8F9FDAFBEEF4DFF3C
:012B21002291
:02219E00AB078D
:1021A000E4FAAF03122AF5EA25E0244CF8A6060863
:1021B000A6077F057E00122BAE0AEAB407E4E4FF0F
:1021C000AE07EED39406503CEE25E0244DF9EF2502
:1021D000E0244CF8E6FC08E6FDC397EC1997402193
:1021E000EE25E0244CF8E6FA08E6FBEF25E0244C67
:1021F000F8A60208A603EE25E0244CF8A60408A6DB
:10220000050E80BE0FEFB407B7E47858F608F678ED
:102210004CF608F6794FE7785126FF19E71836FE95
:10222000EF785326FFEE1836FEEF785526FFEE18AE
:1022300036FEEF785726FFEE1836FE7C007D05024D
:0222400019AAD9
:0A2D4A00C2998F993099FDC29922B9
:092D5400007F017E86DEFEDFFC3B
:012D5D002253
:10277A00D2B6D2C1D2B7E4FF12279ED2B67F441294
:10278A00279ED2B67FCE12279E7836E6FF12279E64
:04279A00D2B67F93A1
:02279E00AD0785
:1027A000122D54C2B6E4FFC2C1ED1392B7D2C1EDEF
:0B27B000C313FD0FEFB408EF022D541F
:02224200AA07E9
:10224400EA6401702B79CB7BCA7833E654F0FFF64D
:10225400ED901C919354F0FEC4540F4F90029EF0E5
:10226400F618E654F0FFF6ED901C9193540F802A73
:10227400EAB4021279C77BC77865E65408FFF6ED25
:10228400901C91938014EAB4031379C67BC67864D6
:10229400E65408FFF6ED901C91934FFCF6D2B6D2AB
:1022A400C1D2B7E4FF12279ED2B67F4412279ED232
:1022B400B6EAB4010FAF0112279E90029EE0FF120E
:1022C400279ED2B600AF0312279EAF04122797D2DF
:0122D400B653
:0122D50022E6
:042510007868E6FF02
:10251400EF70097839E65430F6F68058EFB4010BC1
:102524007839E65430F64440F68049EFB4020B782B
:1025340039E65430F644C0F6803AEFB4030B7839E8
:10254400E65430F644C8F6802BEFB4040B7839E631
:102554005430F644CCF6801CEFB4050B7839E654BD
:1025640030F644CEF6800DEFB406097839E65430DF
:10257400F644CFF6D2B6D2C1D2B7E4FF12279ED228
:10258400B67F4412279ED2B67FCF12279E78391287
:052594002795D2B622DC
:102485007863A60708A60708A6077832A60708A650
:10249500077836A6077839A607D2B6D2C1D2B7E4EF
:1024A500FF12279ED2B67F4412279ED2B67FC31253
:1024B500279E7863E6FF12279ED2B67FC612279E17
:1024C50008E6FF12279ED2B67FC712279E08E6FFB1
:1024D50012279ED2B67FCA12279E7832E6FF1227B0
:1024E5009ED2B67FCB12279E08E6FF12279ED2B654
:1024F5007FCE12279E7836E6FF12279ED2B67FCF73
:0B25050012279E7839122795D2B622CB
:0E20F000D2247825E6FFE4900299F0A3EFF0E9
:1020FE00202403022188900299E0FAA3E0FB7C03DE
:10210E007DE8FFAE021219AA7E007F64CFCDCFCE3E
:10211E00CCCE1219AAA3EFF07C007D64AF03AE0201
:10212E001219AA7E007F0ACFCDCFCECCCE1219AA1D
:10213E00A3EFF0900299E0FEA3E0FF7C007D0A126F
:10214E0019AA90029DEDF090029BE070047D108024
:10215E000590029BE0FD7F0112224290029BE070EF
:10216E0008A3E070047D10800590029CE0FD7F02C4
:10217E0012224290029DE0FD80107D107F011222FE
:0F218E00427D107F021222427D107F03122242F7
:01219D00221F
:0627F900C202C2CCC224A2
:1027FF007863E63024054440F6800354BFF6D2B622
:10280F00D2C1D2B7E4FF12279ED2B67F4412279EC1
:0F281F00D2B67FC312279E7863122795D2B622B6
:1027BB00FF122485D2A0C20EC20FD2C3D2A6D2C49E
:1027CB00D2A4D2C2D2A5E47867F6C285C2A8C28EC3
:0A27DB00C2A9D2A2D2A1D297C22453
:1027E5007836E63024054408F6800354F7F61227B8
:0427F5007AD2B622BC
:102C69007836E63024054404F6800354FBF612272F
:042C79007AD2B62233
:102C7D007836E63024054402F6800354FDF612271B
:042C8D007AD2B6221F
:102C91007836E63024054401F6800354FEF6122707
:042CA1007AD2B6220B
:102892007833E63024054440F6800354BFF6D2B6BE
:1028A200D2C1D2B7E4FF12279ED2B67F4412279E2E
:0F28B200D2B67FCB12279E7833122795D2B6224B
:1028C1007833E63024054420F6800354DFF6D2B68F
:1028D100D2C1D2B7E4FF12279ED2B67F4412279EFF
:0F28E100D2B67FCB12279E7833122795D2B6221C
:1028F0007833E63024054410F6800354EFF6D2B660
:10290000D2C1D2B7E4FF12279ED2B67F4412279ECF
:0F291000D2B67FCB12279E7833122795D2B622EC
:10291F007863E63024054410F6800354EFF6D2B600
:10292F00D2C1D2B7E4FF12279ED2B67F4412279EA0
:0F293F00D2B67FC312279E7863122795D2B62295
:10294E007863E63024054420F6800354DFF6D2B6D1
:10295E00D2C1D2B7E4FF12279ED2B67F4412279E71
:0F296E00D2B67FC312279E7863122795D2B62266
:10297D007863E63024054480F68003547FF6D2B6A2
:10298D00D2C1D2B7E4FF12279ED2B67F4412279E42
:0F299D00D2B67FC312279E7863122795D2B62237
:1029AC007864E63024054408F6800354F7F6D2B672
:1029BC00D2C1D2B7E4FF12279ED2B67F4412279E13
:0F29CC00D2B67FC612279E7864122795D2B62204
:1029DB007863E6301D054404F6800354FBF6D2B64B
:1029EB00D2C1D2B7E4FF12279ED2B67F4412279EE4
:0F29FB00D2B67FC312279E7863122795D2B622D9
:102A0A007863E6301E054408F6800354F7F6D2B61A
:102A1A00D2C1D2B7E4FF12279ED2B67F4412279EB4
:0F2A2A00D2B67FC312279E7863122795D2B622A9
:102CA5007836E6301F054480F68003547FF61227F8
:042CB5007AD2B622F7
:102CB9007836E63020054440F6800354BFF61227E3
:042CC9007AD2B622E3
:102CCD007836E63021054420F6800354DFF61227CE
:042CDD007AD2B622CF
:102A39007832E63022054408F6800354F7F6D2B618
:102A4900D2C1D2B7E4FF12279ED2B67F4412279E85
:0F2A5900D2B67FCA12279E7832122795D2B622A4
:102A68007865E63023054408F6800354F7F6D2B6B5
:102A7800D2C1D2B7E4FF12279ED2B67F4412279E56
:0F2A8800D2B67FC712279E7865122795D2B62245
:102CE1007836E63024054410F6800354EFF61227B7
:042CF1007AD2B622BB
:102A97007839E63024054410F6800354EFF6D2B6B1
:102AA700D2C1D2B7E4FF12279ED2B67F4412279E27
:0F2AB700D2B67FCF12279E7839122795D2B6223A
:102AC6007839E63024054420F6800354DFF6D2B682
:102AD600D2C1D2B7E4FF12279ED2B67F4412279EF8
:0F2AE600D2B67FCF12279E7839122795D2B6220B
:101E8B00EF14B407004003021F61901EA375F0030B
:101E9B00A4C58325F0C58373021EB8021ED0021E93
:101EAB00E8021EFB021F0E021F26021F43D2241242
:101EBB002C69C224122C7DC224122C91D2241228FC
:101ECB0092C224806CD224122C69D224122C7DC293
:101EDB0024122C91D224122892D2248054D2241270
:101EEB002C69D224122C7DD224122C91D224802442
:101EFB00D224122C69C224122C7DD224122C91D202
:101F0B00248046C224122C69D224122C7DD2241296
:101F1B002C91C224122892D2248033C224122C6911
:101F2B00D224122C7DC224122C91C224122892D2BC
:101F3B00241228C1C224801BC224122C69C2241271
:101F4B002C7DD224122C91C224122892C224122846
:071F5B00C1D2241228F0227C
:1026E10012202DE4FF122485D22478611220F4D225
:1026F1002412297D7FE87E03122BAEC22412297D8C
:102701001220F0D2241229AC1225107842E6FF12D1
:102711001E8B7827E6B40104D2248002C224122938
:102721001FD224122CE1D224122A97D224022AC6C3
:0F2D140043BA8090FF32EEF0A3EFF053BA7F2264
:0A2D5E0043BA8075F58853BA7F224E
:102C13007F0A7E00122D1443BA80E4F5F553BA7F80
:072C23007828F608760A226A
:0422D6007868E6FF3F
:1022DA00EFB4070040030223689022EAF828287323
:1022EA000222FF02230502231502232502233502B7
:1022FA002345022355122C13C20E22122D5E782872
:10230A0076070876D07FD07E07804E122D5E782819
:10231A0076090876607F607E09803E122D5E7828F5
:10232A00760A0876F07FF07E0A802E122D5E7828D3
:10233A00760C0876807F807E0C801E122D5E7828AF
:10234A00760E0876107F107E0E800E122D5E78288B
:0F235A00760F0876A07FA07E0F122D14D20E22D0
:10282E009002B9EBF0A3EAF0A3E9F0ED1DAE04704F
:10283E00011C4E601EC2999002B9E0FBA3E475F034
:10284E00011219FFA9F0FA121930F5993099FDC24B
:04285E009980D82263
:0300230002261F93
:10261F00C0E0C0F0C083C082C0D075D000C000C081
:10262F0006C007309844C298785AE6703DC39002AE
:10263F0056E09440900255E0648094804004E4F0AA
:10264F00A3F0900255E475F0011219FFFE7457259F
:10265F00F0F58274023EF583E599F0900297E0FF62
:10266F00A3E0900253CFF0A3EFF0D007D006D00035
:0B267F00D0D0D082D083D0F0D0E03269
:102B6A00784AE6FE08E6FF7C007D05121998EF24F4
:102B7A007B7844F6EE34E218F6784576FD0876E876
:012B8A002228
:03000300022B22AB
:102B2200C0E0C0D075D008D2A2D2A1D2977843E635
:102B3200FE08E6F58AEEF58CC21CC28DD2A9D28CB3
:052B4200D0D0D0E0320C
:03000B0002259932
:10259900C0E0C0F0C083C082C0D075D010201C61DB
:1025A9007842E614B4070050439025C075F003A49F
:1025B900C58325F0C583730225D50225D90225DFF8
:1025C9000225E30225E90225EF0225F3C297801CC3
:1025D900C297C2A18016C2978006C297C2A2800C78
:1025E900C2A1C2A28006C2A18002C2A2C28C784541
:1025F900E6FE08E6F58AEEF58CC28DD28CD21C80F7
:102609000AD2A2D2A1D297C28CC2A9D0D0D082D0EC
:0626190083D0F0D0E03296
:03009B00021D95AE
:101D9500C0E0C0F0C083C082C0D075D018D3900217
:101DA50056E09400900255E0648094804017785A7C
:101DB500E6701290025374FFF5F01219FF45F070AA
:101DC50004785A7601E580540F7869F6300B1B7854
:101DD5007306E6D394C74012760008067974E7784F
:101DE5005E96400678747600D213782606E6D3947C
:101DF5006440047600D21B300E0F786206E6D39459
:101E05001440067600D205B20620020F787206E667
:101E1500D3941440067600D202D2CC200C11785D02
:101E2500E6D3945A4006B2C276008003785D063048
:101E3500042E786006E618700106D37860E6949063
:101E450018E6940140077600087600D20D782FE653
:101E5500D3945A40067600B2038020782F06801B63
:101E6500783106E618700106D37831E6945818E6FD
:101E7500940240077600087600D212D0D0D082D0E6
:061E850083D0F0D0E03232
:10009E00C286C285D2A0D20C759460E4F593759297
:1000AE00C075911875968EF595F5B2F5B1F5B4F556
:1000BE00B3F5CAF5C9D2A2D2A1D29743BA8075F1CF
:1000CE000890FFF2F090FFF07410F0A3E4F090FFB0
:1000DE0030F0A3F0A3F0A3740AF0A3E4F075F730A8
:1000EE0053BA7F122BE3122D3E122C2A122D2312FD
:1000FE002CF5D288D2AFD294D293122D0512202D88
:10010E00122B8BD294D29300000000000020930992
:10011E00209406782A760380163093092094067868
:10012E002A7604800A209307309404782A760500F4
:10013E000000E4FF122485D287E47867F67F32FE52
:10014E00122BAE7869E6640360030201E4C202C2B8
:10015E00CCC2A0C2C3C2C4C2A6D224785E1220F4FE
:10016E007869E6B4030575C13480F57F327E0012DE
:10017E002BAE7869E664017011C202C2CC785E06BD
:10018E00E6D394FA401A76FA80167869E66405701A
:10019E001BC202C2CC785E16E6C3940A5002760ADF
:1001AE00D224785E1220F4122BAA80BF7869E664FE
:1001BE000370B8C202C2CC122BFC7869E6B40305F8
:1001CE0075C13480F5D2C3D2A6D2C4D2A4D2A5E4CE
:1001DE00FF122485D2A0C2C2E4786AF67F027E00A6
:1001EE00122BAE0000785AE660237B017A02795713
:1001FE00900255E0FCA3E0FD121208EF64024E706F
:10020E0002B2C4E4900255F0A3F0785AF630070E0D
:10021E00C207C20AC2A0D20C78677601803F786905
:10022E00E670B9C202C2CCD2C27FFF122485C2A030
:10023E00D20C78677601C2A4122BAAC2A5122BAAE1
:10024E00C2A6122BAAC2C4122BAAC2C3122BAAC2B6
:10025E00C27FE87E03122BAEE4FF1224850000C29B
:10026E00C3C2A6C2C4C2A4C2A5C2181226E1C2C28B
:10027E00C20D121B7A7834A60608A607C212C20156
:10028E00E47830F608F6C20FD2857FC8FE122BAE88
:10029E00C285D224122CE1C224122A9775C1347859
:1002AE005AE660237B017A027957900255E0FCA34F
:1002BE00E0FD121208EF64024E7002B2C4E4900226
:1002CE0055F0A3F0785AF630140BC214121F6212B6
:1002DE002BFC02026B301A08C21A1226E1122C55A0
:1002EE00300813C2087827E67004C2248002D22494
:1002FE0012291F020713300A0CC20AE41227BB127E
:10030E002C1302013E7827E6640170642087353095
:10031E0018030203B6D218C20FC20B1222D6D22471
:10032E001227E57825E675F00EA4FFAEF0784AEEBA
:10033E00F608EFF6D394AAEE9405406018760508F9
:10034E0076AA805830181DC218C20FE47874F618B9
:10035E00F6D20BC2241227E5C2A8C28EC2A9D2A21F
:10036E00D2A1D297301341C213122C13C20E803871
:10037E00200F35D20F1222D6D2241227E57825E689
:10038E0075F00EA4FFAEF0784AEEF608EFF6D394B1
:10039E00AAEE940540061876050876AA122B6AE492
:1003AE00F58BF58DC289D2A8300518C20530060925
:1003BE00D224122CE1C2248007C224122CE1D224B2
:1003CE00122A97201B030204CAC21B121B7A78340E
:1003DE00A60608A6077F0512219E7840121B81787B
:1003EE0040A60608A6073009182004157834E6FE44
:1003FE0008E6FFD39400EE94004006D224EE1220BD
:10040E00F77866E6FFC37835E69F18E69400400459
:10041E00D2868002C2867840E6FE08E6FFD3942D8F
:10042E00EE94004009200106D285D2018014C3EF5C
:10043E009428EE9400500B300108C285C201D20CF4
:10044E00C2C2D3EF9464EE94004012C20C30C208C4
:10045E00C202C2CCC2248002D22412294ED37841C9
:10046E00E6947618E6940040531227D7D224122928
:10047E004ED2867F647E00122BAE30C204C202C200
:10048E00CC7869E670EDC202C2CCFF122485D2A0F0
:10049E00C20EC20FD2C3D2A6D2C4D2A4D2C2D2A589
:1004AE00C2A8C28EC2A9D2A2D2A1D297122C137800
:1004BE0069E6600302013E75C13480F3301244C216
:1004CE0012300918C209C2241227FFD2241229ACF5
:1004DE00D2247825E6FF900299E48024D209D378BD
:1004EE0035E6940018E694004019D2241227FFC274
:1004FE00241229ACD2247834E6FF08E6900299CF74
:10050E001220FA300D09C20DC204D212121F6278E7
:10051E0069E67037784776967869E670127847E61E
:10052E00D39400400A167F0A7E00122BAE80E97823
:10053E0047E67017C202C2CC1227BB122C13786981
:10054E00E6600302013E75C13480F37869E6B403B8
:10055E0016200C13C202C2CCD20CC2C27869E6B409
:10056E00030575C13480F57869E6FC64097037C2FD
:10057E0002C2CCD204785FF608F6786806E6D39409
:10058E0006400276061225107827E6FF6006B401B3
:10059E00062087031222D67869E6640960030206F4
:1005AE00C575C13480F1EC640D7037C202C2CCD275
:1005BE0004785FF608F67868E67003F680037868CC
:1005CE00161225107827E6FF6006B4010620870371
:1005DE001222D67869E6640D60030206C575C13431
:1005EE0080F17869E66401705D1227F9D224122930
:1005FE00ACD204E4785FF608F67825740526F6E6A4
:10060E00D39464400276641220F07825E675F00EDD
:10061E00A4FFAEF0784AEEF608EFF6D394AAEE9465
:10062E000540061876050876AA122B6A30150BC2FD
:10063E0015E4F58BF58DC289D2A87869E664017050
:10064E007675C13480F47869E66405706A1227F90C
:10065E00D2241229ACD204E4785FF608F67825E6A7
:10066E00C39405400474FB26F61220F07825E6FFAD
:10067E00C394055017E4F6C2A8C28EC2A9D2A2D264
:10068E00A1D2977827E67024D2158020EF75F00E50
:10069E00A4FFAEF0784AEEF608EFF6D394AAEE94E5
:1006AE000540061876050876AA122B6A7869E6B414
:1006BE00050575C13480F57869E6640460030207A8
:1006CE0058784776967869E6B404127847E6D3945C
:1006DE0000400A167F0A7E00122BAE80E87847E6AD
:1006EE00703DC202C2CC7827E670067601D2248015
:1006FE0006E47827F6C22412291F7869E6B40405A9
:10070E0075C13480F5121F62C20ED2C3D2A6D2C4F6
:10071E00D2A4D2C2D2A51227D7122C1302026BC2B8
:10072E0002C2CCC20EC20FD204E4785FF608F608FD
:10073E0006E6D39405400276011226E1122C557876
:10074E0069E6B4040575C13480F57869E664026023
:10075E00030202AA784776967869E6B402127847C1
:10076E00E6D39400400A167F0A7E00122BAE80E874
:10077E007847E66003020837C202C2CCD2241227A1
:10078E00FFC2241229ACD22478661220F4D2047847
:10079E0069E66402701375C134300304D2248002FA
:1007AE00C22478661220F480E67F1E7E00122BAEE5
:1007BE00300304D2248002C22478661220F47869B1
:1007CE00E664017011C202C2CC786606E6D394C804
:1007DE00401A76C880167869E66405701FC202C298
:1007EE00CC786616E6C3943250027632D2247866FE
:1007FE001220F47F967E00122BAE80AD7869E664EF
:10080E000270A6C202C2CC7869E6B4020575C13484
:10081E0080F5121F62C204C20DC2241227FFD22419
:10082E001229AC1220F00202AAC202C2CCD204E4F7
:10083E00785FF608F6784206E6D394074002760112
:10084E007842E6FF121E8B7869E6640260030202AC
:06085E00AA75C13480F10F
:09288800410000004200010000C3
:10273100E0FBA3E0FAA3E0F9121930FF90000112C7
:052741001949FD7B03B6
:02274600AC07DE
:10274800E4FFFE9002B4ECF0ED2480A3F0A3EBF0DC
:102758007B017A0279B47D037C001200269002B7CF
:10276800EFF0EEA3F07B017A0279B47D057C0002DC
:02277800282E09
:050006007E007F0122D5
:0B13D0009002A2EBF0A3EAF0A3E9F00A
:1013DB00E4A3F0A3F0A3F0A3F0A3F0A3F0A3F0A376
:1013EB00F0A3F09002A2E0FBA3E0FAA3E0F99000D7
:1013FB00021219499000031219499000041219495D
:10140B009002A8F0A3E4F0900005121949FF900296
:10141B00A9E02FF09002A8E03400F0E0FEA3E0FF7B
:10142B00C39401EE94004009D3EF94D0EE9407409F
:10143B00129002A21227319002A5E4F0A304F0FF50
:10144B007E00229002A8E0FCA3E0FDAE047803CE60
:10145B00C313CE13D8F99002A7F0ED5407D3940021
:10146B00E494004003E004F0E4900001F0A3F0905A
:10147B0002A2E0FBA3E0FAA3E0F9121930900143BA
:10148B00F0900001121949900144F09002A7E090EE
:10149B000145F09002A7E0FF14F0EF6023900001EC
:1014AB00E0FEA3E02446F58274013EF583E5C8F027
:1014BB00900002E004F07006900001E004F080D38D
:1014CB00900001E0FEA3E0900145F02405FFE43E0F
:1014DB00FE9002ACF0A3EFF07B017A01794324FE7E
:1014EB00FDEE34FFFC1200269002AAEEF0A3EFF003
:1014FB009002AAE0FEA3E0FBA3E0FCA3E0FD2441E5
:10150B00F58274013CF583EBF0EEFF74422DF5820E
:10151B0074013CF583EFF07B017A01794312282E9D
:08152B009002A5E0FEA3E0FF21
:011533002295
:0B1534009002A2EBF0A3EAF0A3E9F0A4
:10153F00E4A3F0A3F0A3F0A3F0A3F0A3F0A3F0A310
:10154F00F0A3F09002A2E0FBA3E0FAA3E0F9900071
:10155F0002121949900003121949900004121949F7
:10156F009002A8F0A3E4F0900005121949FF900231
:10157F00A9E02FF09002A8E03400F0E0FEA3E0FF16
:10158F00C39401EE94004009D3EF94D0EE9407403A
:10159F00129002A21227319002A5E4F0A304F0FFEB
:1015AF007E00229002A8E0FCA3E0FDAE047803CEFB
:1015BF00C313CE13D8F99002A7F0ED5407D39400BC
:1015CF00E494004003E004F0E4900001F0A3F090F5
:1015DF0002A2E0FBA3E0FAA3E0F912193090014355
:1015EF00F0900001121949900144F09002A7E09089
:1015FF000145F09002A7E0FF14F0EF602390000187
:10160F00E0FEA3E02446F58274013EF583E5C8F0C1
:10161F00900002E004F07006900001E004F080D327
:10162F00900001E0FEA3E0900145F02405FFE43EA9
:10163F00FE9002ACF0A3EFF07B017A01794324FE18
:10164F00FDEE34FFFC1200269002AAEEF0A3EFF09D
:10165F009002AAE0FEA3E0FBA3E0FCA3E0FD24417F
:10166F00F58274013CF583EBF0EEFF74422DF582A9
:10167F0074013CF583EFF07B017A01794312282E38
:08168F009002A5E0FEA3E0FFBC
:011697002230
:0B0864009002A2EBF0A3EAF0A3E9F081
:10086F00E4A3F0A3F0A3F0A3F0A3F0A3F0A3F0A3ED
:10087F00F0A3F0A3F0A3F09002A2E0FBA3E0FAA391
:10088F00E0F99000021219499002A8F0A3E4F09049
:10089F000003121949FF9002A9E02FF09002A8E07F
:1008AF003400F09000041219499002AAF0A3E4F06A
:1008BF00900005121949FF9002ABE02FF09002AAA9
:1008CF00E03400F0A3E024FDF09002AAE034FFF042
:1008DF00E0FEA3E0FFC39401EE94004009D3EF9430
:1008EF007DEE940040129002A21227319002A5E4EF
:1008FF00F0A304F0FF7E00229002AAE0FCA3E0FD2B
:10090F00AE047803CEC313CE13D8F99002A7F0ED3F
:10091F005407D39400E494004003E004F0E4900003
:10092F0001F0A3F09002A2E0FBA3E0FAA3E0F9121A
:10093F001930900143F0900001121949900144F0D1
:10094F009002A7E0900145F09002A8E0FEA3E0FF1F
:10095F00E4FCFD7B417A9CF9F8C3121A156003027F
:10096F000B109002AA74FFF5F01219FF45F07003F7
:10097F00020AA57861E6FF900001E0FCA3E024469F
:10098F00F58274013CF583EFF0900002E004F07003
:10099F0006900001E004F07842E6FF900001E0FCD1
:1009AF00A3E02446F58274013CF583EFF09000023A
:1009BF00E004F07006900001E004F07827E6FF9065
:1009CF000001E0FCA3E02446F58274013CF583EFBF
:1009DF00F0900002E004F07006900001E004F0785F
:1009EF0068E6FF900001E0FCA3E02446F582740165
:1009FF003CF583EFF0900002E004F07006900001E8
:100A0F00E004F07825E6FF900001E0FCA3E0244627
:100A1F00F58274013CF583EFF0900002E004F07072
:100A2F0006900001E004F07867E6FF900001E0FC1B
:100A3F00A3E02446F58274013CF583EFF0900002A9
:100A4F00E004F07006900001E004F07835E6FF90C6
:100A5F000001E0FCA3E02446F58274013CF583EF2E
:100A6F00F0900002E004F07006900001E004F078CE
:100A7F005EE6FF900001E0FCA3E02446F5827401DE
:100A8F003CF583EFF0900002E004F0700690000157
:100A9F00E004F0020971900001E0FEA3E09001452F
:100AAF00F02405FFE43EFE9002AEF0A3EFF07B01D1
:100ABF007A01794324FEFDEE34FFFC1200269002EA
:100ACF00ACEEF0A3EFF09002ACE0FEA3E0FBA3E0EE
:100ADF00FCA3E0FD2441F58274013CF583EBF0EEBD
:100AEF00FF74422DF58274013CF583EFF07B017AA0
:100AFF0001794312282E9002A5E4F0A37402F0802E
:100B0F00239002A2E0FBA3E0FAA3E0F9121930FF51
:100B1F00900001121949FD7B021227469002A5E4AD
:0C0B2F00F0A304F09002A5E0FEA3E0FF9C
:010B3B002297
:0B0B3C009002A2EBF0A3EAF0A3E9F0A6
:100B4700E4A3F0A3F0A3F0A3F0A3F0A3F0A3F0A312
:100B5700F0A3F0A3F0A3F09002A2E0FBA3E0FAA3B6
:100B6700E0F99000021219499002A8F0A3E4F0906E
:100B77000003121949FF9002A9E02FF09002A8E0A4
:100B87003400F09000041219499002AAF0A3E4F08F
:100B9700900005121949FF9002ABE02FF09002AACE
:100BA700E03400F0A3E024FDF09002AAE034FFF067
:100BB700E0FEA3E0FFC39401EE94004009D3EF9455
:100BC7007DEE940040129002A21227319002A5E414
:100BD700F0A304F0FF7E0022E4900001F0A3F09060
:100BE70002A2E0FBA3E0FAA3E0F912193090014357
:100BF700F0900001121949900144F09002A7E0908B
:100C07000145F09002A8E0FEA3E0FFE4FCFD7B4174
:100C17007A9CF9F8C3121A156003020DBA9002AA5A
:100C270074FFF5F01219FF45F07003020D58786153
:100C3700E6FF900001E0FCA3E02446F58274013C46
:100C4700F583EFF0900002E004F07006900001E0F9
:100C570004F07842E6FF900001E0FCA3E02446F5AB
:100C67008274013CF583EFF0900002E004F0700617
:100C7700900001E004F07827E6FF900001E0FCA374
:100C8700E02446F58274013CF583EFF0900002E022
:100C970004F07006900001E004F07868E6FF900029
:100CA70001E0FCA3E02446F58274013CF583EFF0F4
:100CB700900002E004F07006900001E004F078254F
:100CC700E6FF900001E0FCA3E02446F58274013CB6
:100CD700F583EFF0900002E004F07006900001E069
:100CE70004F07866E6FF900001E0FCA3E02446F5F7
:100CF7008274013CF583EFF0900002E004F0700687
:100D0700900001E004F07835E6FF900001E0FCA3D5
:100D1700E02446F58274013CF583EFF0900002E091
:100D270004F07006900001E004F0785EE6FF9000A2
:100D370001E0FCA3E02446F58274013CF583EFF063
:100D4700900002E004F07006900001E004F0020C4D
:100D570024900001E0FEA3E0900145F02405FFE4A4
:100D67003EFE9002AEF0A3EFF07B017A01794324B7
:100D7700FEFDEE34FFFC1200269002ACEEF0A3EF6E
:100D8700F09002ACE0FEA3E0FBA3E0FCA3E0FD24AF
:100D970041F58274013CF583EBF0EEFF74422DF5CB
:100DA7008274013CF583EFF07B017A0179431228C5
:100DB7002E80239002A2E0FBA3E0FAA3E0F9121928
:100DC70030FF900001121949FD7B0212274690025D
:0E0DD700A5E4F0A304F09002A5E0FEA3E0FF67
:010DE50022EB
:102369009002A2EBF0A3EAF0A3E9F0A3ECF0A3ED4D
:01237900F073
:10237A00E4A3F0A3F0A3F0A3F09002A2E0FBA3E091
:10238A00FAA3E0F99000021219499002A9F0A3E415
:10239A00F0900003121949FF9002AAE02FF0900270
:1023AA00A9E03400F09000041219497F00FE900061
:1023BA00051219492FFFE43EFE4F6016EF7002EE38
:1023CA00F4600F1227399002A7E4F0A304F0FF7E0D
:1023DA0000229002A2E0FBA3E0FAA3E0F9A3E0FC4A
:0E23EA00A3E0FD12282E9002A7E0FEA3E0FF64
:0123F80022C2
:101698009002A2EBF0A3EAF0A3E9F0A3ECF0A3ED2B
:0116A800F051
:1016A900E4A3F0A3F0A3F0A3F09002A2E0FBA3E06F
:1016B900FAA3E0F99000021219499002A9F0A3E4F3
:1016C900F0900003121949FF9002AAE02FF090024E
:1016D900A9E03400F09000041219497F00FE90003F
:1016E900051219492FFFE43EFEC394004009D3EFC8
:1016F90094FFEE94FF40129002A21227319002A7A4
:10170900E4F0A304F0FF7E00229002A9E0FEA3E02A
:10171900FFE4FCFD7B157AA4F9F8C3121A15702BA6
:101729009002A2E0FBA3E0FAA3E0F99000051219E8
:1017390049FFD3940050030217F3EF9405400302C5
:1017490017F37861A607D21A0217DF9002A9E0FE03
:10175900A3E0FFE4FCFD7B167AA4F9F8C3121A157D
:1017690070189002A2E0FBA3E0FAA3E0F99000054B
:101779001219497827F6D208805C9002A9E0FEA3E5
:10178900E0FFE4FCFD7B177AA4F9F8C3121A15707F
:10179900189002A2E0FBA3E0FAA3E0F99000051279
:1017A9001949B40102D207802D9002A9E0FEA3E0F5
:1017B900FFE4FCFD7B187AA4F9F8C3121A15702A04
:1017C9009002A2E0FBA3E0FAA3E0F9900005121948
:1017D90049B40202D20A9002A5E0FCA3E0FD122856
:1017E9002E9002A7E4F0A37402F09002A7E0FEA3F2
:0217F900E0FF0F
:0117FB0022CB
:0B1A5D009002A2EBF0A3EAF0A3E9F076
:101A6800E4A3F0A3F0A3F0A3F0A3F0A3F0A3F0A3E2
:101A7800F09002A2E0FBA3E0FAA3E0F990000212C2
:101A880019499002A9F0A3E4F0900003121949FF44
:101A98009002AAE02FF09002A9E03400F090000430
:101AA8001219497F00FE9000051219492FFFE43EE4
:101AB800FEC3EF9401EE94004009D3EF94B0EE9486
:101AC8000740129002A21227319002A5E4F0A30465
:101AD800F0FF7E00229002A2E0FBA3E0FAA3E0F967
:101AE8009000061219499002ABF0E4A3F09002AB03
:101AF800E0FFA3E0C39F502FE0FF2407FDE433FC81
:101B08009002A2E0FBA3E0FAA3E0F98D828C831295
:101B18001949FE74432FF582E43400F583EEF09002
:101B280002ACE004F080C69002A2E0FBA3E0FAA3B6
:101B3800E0F97D067C001200269002A7EEF0A3EFE4
:101B4800F09002A7E0FEA3E0FD9002A2E0FBA3E074
:101B5800FAA3E0F9900006ED121976EE900007124C
:101B680019767D087C0012282E9002A5E0FEA3E0DD
:011B7800FF6D
:011B79002249
:0B17FC009002A2EBF0A3EAF0A3E9F0DA
:10180700E4A3F0A3F0A3F0A3F0A3F0A3F0A3F0A345
:10181700F09002A2E0FBA3E0FAA3E0F99000021225
:1018270019499002A9F0A3E4F0900003121949FFA7
:101837009002AAE02FF09002A9E03400F090000493
:101847001219497F00FE9000051219492FFFE43E47
:10185700FEC3EF9401EE94004009D3EF947BEE941E
:101867000040109002A21227319002A5E4F0A304D1
:1018770002192B9002A9E0FEA3E0FFE4FCFD7B2800
:101887007AA0F9F8C3121A159002A26021E0FBA30F
:10189700E0FAA3E0F9121930FF900001121949FD8F
:1018A7007B021227469002A5E4F0A3048076E0FBB2
:1018B700A3E0FAA3E0F99000071219497842F690DD
:1018C70000081219497868F6900009121949782515
:1018D700F690000A1219497866F690000B1219491A
:1018E700785EF67D067C001200269002A7EEF0A334
:1018F700EFF09002A7E0FEA3E0FD9002A2E0FBA3B9
:10190700E0FAA3E0F9900006ED121976EE900007D1
:101917001219767D087C0012282ED2149002A5E4B5
:08192700F0A37402F0FF7E0042
:01192F002295
:0B0DE6009002A2EBF0A3EAF0A3E9F0FA
:100DF100E4A3F0A3F0A3F0A3F0A3F0A3F0A3F0A366
:100E0100F0A3F0A3F0A3F0A3F0A3F0A3F0A3F0905C
:100E110002A2E0FBA3E0FAA3E0F990000212194953
:100E21009002A9F0A3E4F0900003121949FF900287
:100E3100AAE02FF09002A9E03400F090000412190A
:100E4100499002ABF0A3E4F0900005121949FF901C
:100E510002ACE02FF09002ABE03400F090000612FB
:100E61001949900007121949900008121949900276
:100E7100AEF0A3E4F0900009121949FF9002AFE02F
:100E81002FF09002AEE03400F090000A1219499060
:100E910002ADF09002ABE0FEA3E0FFC39401EE943B
:100EA100004024D3EF947DEE94004002801990021B
:100EB100AEE0FEA3E0FFC39401EE94004009D3EF3E
:100EC1009479EE940040129002A21227319002A56B
:100ED100E4F0A304F0FF7E00229002ADE09002B0A6
:100EE100F0E4A3F09002B0E0FFA3E0C39F502FE035
:100EF100FF240BFDE433FC9002A2E0FBA3E0FAA384
:100F0100E0F98D828C83121949FE74432FF582E436
:100F11003400F583EEF09002B1E004F080C6E49075
:100F21000001F0A3F09002A2E0FBA3E0FAA3E0F934
:100F3100121930900143F0900001121949900144B7
:100F4100F09002ABA3E0900145F09002AB74FFF585
:100F5100F01219FF45F06044900001E0FEA3E02487
:100F610046F58274013EF583E580F0900002E004CD
:100F7100F07006900001E004F0900001E0FEA3E0B3
:100F81002446F58274013EF583E580F0900002E08D
:100F910004F070B6900001E004F080AE900001E032
:100FA100FEA3E0900145F02405FFE43EFE9002B26D
:100FB100F0A3EFF07B017A01794324FEFDEE34FFCB
:100FC100FC1200269002A7EEF0A3EFF09002A7E03A
:100FD100FEA3E0FB9002B2E0FCA3E0FD2441F58218
:100FE10074013CF583EBF0EEFF74422DF582740140
:100FF1003CF583EFF07B017A01794312282E9002B0
:06100100A5E0FEA3E0FFE4
:0110070022C6
:102C4000E49002A2F0A3F07B011227469002A2E0DA
:042C5000FEA3E0FF00
:012C5400225D
:10120800900299EBF0A3EAF0A3E9F0A3ECF0A3EDC8
:01121800F0E5
:10121900E4A3F0A3F0A3F0A3F0FFFEC3ED9404EC64
:1012290064809480500122900299E0FBA3E0FAA324
:10123900E04A4B7003FEFF22900299E0FBA3E0FA1B
:10124900A3E0F9121930FD782A666009900000E0E0
:101259006D6002805A90029DE024FFFF90029CE09D
:1012690034FF8F82F5831219499002A0F0A3E4F0AC
:1012790090029DE024FEFF90029CE034FF8F82F5EE
:1012890083121949FF9002A1E02FF09002A0E034E7
:1012990000F090029DE024FEFD90029CE034FFFCEA
:1012A9001200269002A0E06E7003A3E06F600C901C
:1012B900029EE4F0A304F0FF7E0022900299E0FB75
:1012C900A3E0FAA3E0F9121930700B90029CE0FC3C
:1012D900A3E0FD020006900299E0FBA3E0FAA3E077
:1012E900F9900001121949121A3713120113180241
:1012F900132903133A04134A0513600613760F13CF
:101309008610139617000013A61213D00213BF906C
:101319000299E0FBA3E0FAA3E0F91215340213BF26
:10132900900299E0FBA3E0FAA3E0F9120864021322
:10133900BF900299E0FBA3E0FAA3E0F9120B3C800D
:1013490075900299E0FBA3E0FAA3E0F9A3E0FCA3FE
:10135900E0FD122369805F900299E0FBA3E0FAA304
:10136900E0F9A3E0FCA3E0FD1216988049900299E8
:10137900E0FBA3E0FAA3E0F9121A5D803990029923
:10138900E0FBA3E0FAA3E0F91217FC802990029987
:10139900E0FBA3E0FAA3E0F9120DE68019900299A7
:1013A900E0FBA3E0FAA3E0F9121930FF9000011263
:1013B9001949FD122C4090029EEEF0A3EFF0900225
:0613C9009EE0FEA3E0FF20
:0113CF0022FB
:1010080000C1814001C0804101C0804100C18140D0
:1010180001C0804100C1814000C1814001C08041C0
:1010280001C0804100C1814000C1814001C08041B0
:1010380000C1814001C0804101C0804100C18140A0
:1010480001C0804100C1814000C1814001C0804190
:1010580000C1814001C0804101C0804100C1814080
:1010680000C1814001C0804101C0804100C1814070
:1010780001C0804100C1814000C1814001C0804160
:1010880001C0804100C1814000C1814001C0804150
:1010980000C1814001C0804101C0804100C1814040
:1010A80000C1814001C0804101C0804100C1814030
:1010B80001C0804100C1814000C1814001C0804120
:1010C80000C1814001C0804101C0804100C1814010
:1010D80001C0804100C1814000C1814001C0804100
:1010E80001C0804100C1814000C1814001C08041F0
:1010F80000C1814001C0804101C0804100C18140E0
:1011080000C0C101C30302C2C60607C705C5C4049F
:10111800CC0C0DCD0FCFCE0E0ACACB0BC90908C80F
:10112800D81819D91BDBDA1A1EDEDF1FDD1D1CDCFF
:1011380014D4D515D71716D6D21213D311D1D0106F
:10114800F03031F133F3F23236F6F737F53534F45F
:101158003CFCFD3DFF3F3EFEFA3A3BFB39F9F838CF
:1011680028E8E929EB2B2AEAEE2E2FEF2DEDEC2CBF
:10117800E42425E527E7E62622E2E323E12120E02F
:10118800A06061A163A3A26266A6A767A56564A41F
:101198006CACAD6DAF6F6EAEAA6A6BAB69A9A8688F
:1011A80078B8B979BB7B7ABABE7E7FBF7DBDBC7C7F
:1011B800B47475B577B7B67672B2B373B17170B0EF
:1011C80050909151935352929656579755959454DF
:1011D8009C5C5D9D5F9F9E5E5A9A9B5B995958984F
:1011E800884849894B8B8A4A4E8E8F4F8D4D4C8C3F
:1011F80044848545874746868242438341818040AF
:100026009002B9EBF0A3EAF0A3E9F0A3ECF0A3ED9C
:01003600F0D9
:10003700E4A3F0A3F07FFF7DFF9002BC74FFF5F00F
:100047001219FF45F060339002B9E0FBA3E475F0A5
:10005700011219FFA9F0FA1219306DFB7A00240872
:10006700F582EA3410F583E4936FFD74082BF5826B
:10007700EA3411F583E493FF80BFEF9002BEF0A34B
:10008700E4F0E02DF09002BEE03400F0E0FEA3E0E3
:01009700FF69
:010098002245
:1024050002009EE493A3F8E493A34003F68001F24F
:1024150008DFF48029E493A3F85407240CC8C333D8
:10242500C4540F4420C8834004F456800146F6DFA7
:10243500E4800B0102040810204080902862E47EAD
:10244500019360BCA3FF543F30E509541FFEE4939C
:10245500A360010ECF54C025E060A840B8E493A363
:10246500FAE493A3F8E493A3C8C582C8CAC583CA8E
:10247500F0A3C8C582C8CAC583CADFE9DEE780BE46
:012891000046
:10193000BB010689828A83E0225002E722BBFE02B5
:09194000E32289828A83E49322E8
:10194900BB010CE58229F582E5833AF583E0225053
:1019590006E92582F8E622BBFE06E92582F8E2229D
:0D196900E58229F582E5833AF583E49322B7
:10197600F8BB010DE58229F582E5833AF583E8F0A7
:10198600225006E92582C8F622BBFE05E92582C853
:02199600F2223B
:10199800EF8DF0A4A8F0CF8CF0A428CE8DF0A42E63
:0219A800FE221D
:1019AA00BC000BBE0029EF8DF084FFADF022E4CC21
:1019BA00F875F008EF2FFFEE33FEEC33FCEE9DECEA
:1019CA00984005FCEE9DFE0FD5F0E9E4CEFD22ED30
:1019DA00F8F5F0EE8420D21CFEADF075F008EF2F7A
:1019EA00FFED33FD4007985006D5F0F222C398FD6B
:0519FA000FD5F0EA2208
:1019FF00A3F8E0C5F025F0F0E5821582700215839B
:061A0F00E0C838F0E822F7
:101A1500EB9FF5F0EA9E42F0E99D42F0EC6480C848
:061A250064809845F022E8
:0C1A2B00A42582F582E5F03583F58322C6
:101A3700D083D082F8E4937012740193700DA3A33E
:101A470093F8740193F5828883E473740293686052
:061A5700EFA3A3A380DF52
:00000001FF
